:400000000040002011000000510300005103000008B5044B1A6803F53F5302331A6000F099F900BFFA46004010B5054C237833B9044B13B10448AFF300800123237010BD7D
:40004000D0C0FF1F0000000044080000084B10B51BB108490848AFF300800848036803B910BD074B002BFBD0BDE81040184700BF00000000D4C0FF1F44080000C8C0FF1F9C
:400080000000000010B584B062B60A2101A800F067FB00F031FA00F03FFB10F0100FFAD000F078FB044600F03DFB002300E00133A342FCD300F074FBEDE700BFFEE700BF85
:4000C000F0B40022174611E050F82760F3B226F0FF0608E001EB420511F812406D78A5550132013BDBB2002BF4D101371E2FEBD9F0BC7047064B1B78DBB203F00701054AB5
:4001000011701B09013213704422034B1A707047CF0100496E5800407658004008B50A46002100F086FB08BD38B5F922244B1A801B2202331A70022203F27E231A70082263
:400140004FF040231A70032103F5007319701D4B1B78DBB21C490B701C4B1A8041F25122023B1A80002419250CE0194B1B7803F0010343EA440404F003044FF4F07000F016
:4001800017FB013D0DB1032CEFD115B90320FFF795FF104B4FF480721A8007221A7000220D490A704820023108701A700222033B1A700A4A137843F00103137038BD00BF22
:4001C0008040004008010049A146004022420040254200400440004006400040A243004008B500F01BFB08BD38B572B63F4A137843F00403137000240CE03D4D630019196F
:400200004A0011462A44084691882858FFF786FF0134E4B2062CF0D900240BE03449A3001819420088180622016BC06AFFF7D8FF0134E4B2002CF1D02E494FF09040FFF786
:400240003FFF2D4A137843F0020313701032137843F002031370294C237843F040032370A2F58632513A137843F010031370082223492448FFF7B4FF0A2223492348FFF710
:40028000AFFF082222492348FFF7AAFF0A2222492248FFF7A5FF0A2221492248FFF7A0FF082221492148FFF79BFF082220492148FFF796FF0A2220492048FFF791FF204AC0
:4002C000137843F0080313701E4D61232B70FFF72BFF81232B7001221B4B1A70FFF70AFF0E2221461948FFF77BFF38BDE8460040480800007C00004803500140A043004021
:40030000B408004802510040BC080048C0510040C8080048F2510040D008004810510040DC08004820510040E808004832510040F008004842510040F80800485051004059
:40034000224300400048004004000840B0430040FEE700BF08B5104E104D16E029686B68AC68002204E051F8040B43F8040B0432A242F8D1E868002203E0002143F8041BEC
:4003800004328242F9D11035013E002EE6D100F01FFAFFF777FEFEE701000000A408000008B5104A104B1A60104A136843F40073136000230AE0032B03D80D4A52F8231042
:4003C00000E00C490C4A42F8231001332F2BF2D90A4B1A780A4B1A70074A0A4B1A60FFF703FF08BD0004FA050CED00E014ED00E0000000005103000000C0FF1FBC760040A8
:40040000C0C0FF1F08ED00E001BE704770B504460E46074B1D681F2802D90020FFF7F4FF04F01F04103455F8240045F8246070BD08ED00E038B504460D46072902D90020CA
:40044000FFF7E2FF1F2C02D90020FFF7DDFF04F01F0000F1604000F564406D01EDB2057038BD00BF70B50122134B1A7081220E3B1A70202602331E700F2511331D70002442
:4004800001331C704FF400420C4B1A6007212846FFF7D0FF0A492846FFF7B8FF1022094B1A70094B1C70094B1C70094B1C70304600F04EF970BD00BFD649004080E100E074
:4004C00021050000EDC0FF1FF1C0FF1FF0C0FF1FF8C0FF1F08B500F073F9064A137843F0040313701032137843F00403137000F06BF908BDA543004008B5074B1B7823B99E
:40050000FFF7B0FF0122044B1A70FFF7E3FF4FF40042024B1A6008BDECC0FF1F00E100E008B5724B1B78DAB2714B1B7813F0400F40F0DB806E4B1B7813F0100F00F0D28031
:4005400012F0200F03D102F00903092B15D1684B1B78DBB2112B10D166490B7803F0EF030B70654B197801F0DF011970197841F01001197010215E4B197012F0010F00F080
:40058000B48012F0080F42D05C4B1B7813F0010F2CD05B4B1A78D2B25A4B1B78DBB29A4215D2574A1378DBB257490968CB5CDBB252490B7014214D4B197013780133DBB219
:4005C00013704D4A137843F0020313700AE0FF224A4B1A701422013B1A70474A137843F0060313701222424B1A7008BD10223F4B1A7011223E4B1A703F4A137843F0200394
:4006000013703C4A137843F01003137008BD384B1B78DBB2112B21D13C4B1A78D2B23C4B1B78DBB29A4210D2344B1978C9B21022013B1A70354A1378DBB236480068C154B0
:4006400013780133DBB2137008BD0022274B1A70294A137843F04003137008BD244B1B78DBB2122B3AD112F0020F24D1244B1A78D2B2244B1B78DBB29A4210D2204A137866
:40068000DBB221490968CB5CDBB21C490B700421164B197013780133DBB2137008BDFF22164B1A700422013B1A70134A137843F00403137008BDFF22104B1A700022013BD5
:4006C0001A700D4B1A7802F0FD021A701A7842F001021A701022064B1A7008BD0020FFF793FE08BD1022024B1A7008BDD7490040EDC0FF1FD6490040F1C0FF1FD8490040F4
:40070000F0C0FF1F00C1FF1FF4C0FF1FF8C0FF1FF2C0FF1FFCC0FF1F014B1878704700BFF1C0FF1F4FF40041064B1960064B18781A7802F02F021A70044B196000F0F00083
:40074000704700BF80E100E0F1C0FF1F00E100E000F07F00014B1870704700BFCA490040024660B14FF400430548036005480260054A11700021054A1170054A13607047AE
:4007800080E100E0FCC0FF1FF2C0FF1FF8C0FF1F00E100E0014B1878704700BFF8C0FF1F0022014B1A707047F8C0FF1F000000000230800803D000BF01380046FCD17047BB
:4007C000EFF3108072B6704780F31088704700BF0E4B70B51E460E4C0025E41AA410A54204D056F8253098470135F8E700F048F8084B094C1E46E41AA4100025A54204D0F4
:4008000056F8253098470135F8E770BD8C0800008C0800008C0800009408000010B5431E0A44914204D011F8014B03F8014FF8E710BD03460244934202D003F8011BFAE707
:400840007047000000000000C8490040190060510040100000000140001000140140000800400140000A004C01400002005001402000000060520040AC08004806000000E9
:40088000F8B500BFF8BC08BC9E4670474D000000A1030000F8B500BFF8BC08BC9E46704729000000B8080000C8C0FF1F08000000380000000000000000000000000000007A
:4008C00000000000000000000000000000000000000000000000000000000000000000000000000000000000000000000000000000000000000000000000000000000000F8
:4009000000000000000000000000000000000000000000000000000000000000000000000000000000000000000000000000000000000000000000000000000000000000B7
:400940000000000000000000000000000000000000000000000000000000000000000000000000000000000000000000000000000000000000000000000000000000000077
:400980000000000000000000000000000000000000000000000000000000000000000000000000000000000000000000000000000000000000000000000000000000000037
:020000040001F9
:0200000480007A
:400000000D520040040301404204014035050140380601403F0701403A08014040090140410A01402D0B01403F140140441501403F16014042170140371801403319014044
:40004000061B01400940014014410140154201400B43014003440140084501400A4601400C470140124801401C490140154C0140194D01400250014001510140005A01CCC5
:400080000CE014FF1839195320192125281029102C4F78057903800484048A04E2800103030806FF08FF090A0B010CFF1033110312CC13081704180F1AF01C551EAA2304E3
:4000C0002469269629042D082F0730FF31043308350137023E013F55580459045F018004810D89098B048C068D028E0991059308960497029A049C029E09A009A202A80AF4
:40010000AA01AB02AD0DAF02B008B101B202B302B401B508B604B704BE55BF55D804D904DF0101200211058109020B0A0E2A1104151119021D041E801F60204822442408E2
:40014000250826802740280829812D802F08330934083605370139013B103C803D333F1080408108834086808A408D11940896889D04A404A720A904AF20B640C097C2EBE2
:40018000C454CA3DCCC3CEB5E224EA1003020C020D010E1C1215130A1501160518011A1829012D012F0E300C3108321433013403350237043A3A3BA23F04580459045F0129
:4001C000815583AA84698596869687698AFF8EFF9033913392CC93CC945596AA980F99FF9AF0A1FFA50FA6FFA7F0A9FFB0FFB5FFBAC0BE01BF10D804D904DF010124020138
:400200000580080809020B080EA8102019801A401C801D011EA81F182304244225112711282029202A012D802F08302031023604370139043B023C803D02820184208704C4
:4002400088208A108C088E208F0191109504970A99029DA19E119F01A440A513A614A708A980AF40B601C087C27EC404CA37CCC5CE93E214E608E804EA02003302CC085537
:400280000AAA0DFF100F12F0156916FF179619FF1D0F1EFF1FF0255527AA28962A692BFF2CFF2D332FCC36FF37FF3E403F40580459045F01803382CC8496866989558AFF6F
:4002C0008BAA8EFF900F910F92F093F0945596AA97FF98FFA3FFA7FFA969AB96AD33AFCCB1FFB4FFBE10BF01D804D904DF0100800241032804200640082009020B200D82DD
:400300000E800F201408160119201E0120402680282929102A412B102C012F18310233083428364038203B203C80808085108A808F04902094449601982099109A419B02F2
:400340009D20A102A320A580A680A708A808A910AA08AB20AD08B412B501C05FC2BEC4C0CA7FCC73CE14E244E628E810EE04003302CC0496066908FF09550BAA0EFF100F4E
:40038000110F12F013F015FF1AFF21FF25FF29962B692C552D332EAA2FCC32FF33FF3E043F04580459045F0180FF810283048501885589048AAA8B028D01900F92F093061D
:4003C0009504970299019CFF9D01A033A101A2CCA501A869A901AA96AD01AEFFB0FFB304B502B701B980BE01BF54D804D904DF01024103280422082009020D82100214081C
:40040000164119081F0223202508270A28282A412D282E012F0231023308368A372038203C543D02802183088A408C108E029A01A102AA01AD02C05FC29AC4D1CAFFCCF314
:40044000CEF4E010E410E604EA06015503AA049605690669079608FF0EFF1033113312CC13CC180F19FF1AF01C551EAA23FF250F26FF27F029FF31FF36FF3E403F015804D2
:4004800059045F018202840486098B048C088E078F049103930895099702980D9D04A202A409A604A903AA02AB08AD0EAF01B002B108B204B301B408B504B601B702BE55AF
:4004C000BF55D804D904DF010124020105800750082009020B020E0810201410151016801A011C801DA01F042202240225092610282029202A012D802F0830203102350148
:400500003604374039043B023C403D103E80800181018440870489888D209040911493029601983099A19A019B50A020A102A204A308A612B010B140B30BB608C0B7C24BB3
:40054000C474CA37CCD5CE33E220E660EA81EEA00004020106020B040E050F041502170119021A021B011F04200222052402280529012B022D062F01300231013204340151
:40058000350237043E153F51580459045F018001815583AA84028569879688018E029001913393CC9602980199FF9C01A001A1FFA402A50FA7F0A801ABFFAC01B002B3FFEF
:4005C000B401B820BE11BF04D804D904DF01001001820311044207500A410B240E081010128A1410151017011A081B011C201E041F02201025402621282029202A012D8050
:400600002F08302031023604375039043B023C403D10810182818310860488108A148D229042911492409326982099839A019D20A020A204A308A502A620AB10AD04C0BFDE
:40064000C24FC47FCA37CC75CE33E280E408E6A4EE0202FF055507AA0C960E690FFF11961369143316CC18551AAA1EFF1FFF20FF21FF253327CC280F290F2AF02BF033FFD0
:4006800036FF3E403F04580459045F01885589558AAA8BAA8C0F8EF0910F93F095FF98969A69A1FFA7FFA833A969AACCAB96AD33AFCCB5FFB6FFBE40BF10D804D904DF01F2
:4006C0000020020207420B080C800D080F0812081510168018021F8020042504282029102A412CA02D1031023308374238203E803F08838087048C208D088F4090209110BF
:400700009404982099109AC19B02A080A102A30CAF02B180B308C093C2E2C452CAEFCC93CE54E210E610AE0AB010B401B504EA0BEE405008558059405C1060206401D4E0B6
:40074000D6A0D84052205740581059085D105F026304640482208580894094109C219D40A408A580D4E0D6E0D8C0E6C03E10500457108001820483508420881095109704F6
:400780009C35A408A740AB02AD08B410CE20D460E2A0E6B0EE908C0490029408951096109A449C05A408AE40AF04EA5010101420C40C0382062809080B020E489830C00F06
:4007C000C20F83018A20930298309A28A204A382AA40AD08E601830887808A028E0498309A08A204AB80B702E202E604EE02500556205D80800488058910900295109610F9
:4008000099809A449C05A408A980D4E0D620E680EA20528056045B405F2062016302664274047A02828083408602870188048B208E019A46AA10B008B222D4E0D6E0D8C0C4
:40084000DC80DE20E240E6B0EA800A040C040E0110401320148078107C208C048F0198309F08A602A780B208C207C40EDE03E208E608EA0402020380040807080B01640820
:4008800078407C809408970198C89F08A602A780AB20AE05B004B408C00FC202D801DC01DE04E802EE0100010A0103C0253600003000000000FFFF00FF0000003000000FF2
:4008C0003F003F0000000000000F0F000F000000E00000EB0B00000000000000FF0080FF800000000000000000FFFF00FF000000003F3F003F0000000D00421D1000100033
:4009000000000000000000000000000000000000000000000000000000000000000000000000000000000000000000000000000000000000000000000000000000000000B7
:400940000000000000000000000000000000000000000000000000000000000000000000000000000000000000000000000000000000000000000000000000000000000077
:400980000000000000000000000000000000000000000000000000000000000000000000000000000000000000000000000000000000000000000000000000000000000037
:4009C00000000000000000000000000000000000000000000000000000000000000000000000000000000000000000000000000000000000000000000000000000000000F7
:0200000490006A
:0400000000004005B7
:0200000490105A
:04000000BC90ACAF55
:0200000490303A
:02000000E848CE
:0200000490402A
:4000000000000000000000000000000000000000000000000000000000000000000000000000000000000000000000000000000000000000000000000000000000000000C0
:400040000000000000000000000000000000000000000000000000000000000000000000000000000000000000000000000000000000000000000000000000000000000080
:0200000490501A
:0C00000000012E13306900012E1918B108
:00000001FF