:400000000040002011000000890000008900000008B5044B1A6803F53F5302331A6000F035F800BFFA46004010B5054C237833B9044B13B10448AFF300800123237010BD78
:4000400018C1FF1F00000000A0040000084B10B51BB108480849AFF300800848036803B910BD074B002BFBD0BDE81040184700BF00000000A00400001CC1FF1F08C1FF1F19
:400080000000000062B6FEE7FEE700BF08B5104E104D16E029686B68AC68002204E051F8040B43F8040B0432A242F8D1E868002203E0002143F8041B04328242F9D1103555
:4000C000013E002EE6D100F0B1F9FFF7DBFFFEE701000000F404000008B5134A134B1A60134A136843F40073136000230AE0032B03D8104A52F8231000E00F490F4A42F8F5
:40010000231001332F2BF2D90D4B1A780D4B1A700A4A0D4B1A6000F0B5F800F06DF900220A4B1A6008BD00BF0004FA050CED00E014ED00E0000000008900000000C0FF1FB5
:40014000BC76004004C1FF1F08ED00E000C1FF1FFEE700BFF0B40022174611E050F82760F3B226F0FF0608E001EB420511F812406D78A5550132013BDBB2002BF4D10137B6
:40018000272FEBD9F0BC7047064B1B78DBB203F00701054A11701B09013213704422034B1A707047CF0100496E5800407658004008B50A46002100F06AF908BD38B5002433
:4001C000264B1C80582202331A70072202331A80182202331A70022203F27A231A7008224FF040231A70032103F5007319701C4B1B78DBB21B490B701B4B1A8041F251220E
:40020000023B1A8019250CE0184B1B7803F0010343EA440404F003044FF4F07000F0DCF8013D0DB1032CEFD115B90320FFF790FF0F4B4FF480721A8007221A7000220D4944
:400240000A704820023108701A700222033B1A70094A137843F00303137038BD8040004008010049A146004022420040254200400440004006400040A243004008B500F04C
:40028000FBF808BD70B572B6394A137843F00403137000240CE0374963001A1952000A4423445B00C8589188FFF782FF0134E4B2062CF0D94FF090402F49FFF74BFF2F4832
:4002C0000421FFF775FF2E4A137843F0020313701032137843F0020313702A4C237843F040032370A2F58632513A137843F010031370254825490822FFF7C0FF244825494D
:400300000822FFF7BBFF244824490822FFF7B6FF234824490A22FFF7B1FF234823490A22FFF7ACFF224823490822FFF7A7FF224822490822FFF7A2FF214822490A22FFF7BF
:400340009DFF214A137843F0080313701F4E01253570FFF733FF812333701D4B1D70FFF713FF1C4821460E22FFF788FF70BD00BFE8460040A4040000A0000048007600406E
:4003800003500140A043004002510040A80C0048C2510040B00C0048F2510040B80C004810510040C00C004820510040CC0C004832510040D80C004842510040E00C004895
:4003C00050510040E80C0048224300400048004004000840B04300400230800803D000BF01380046FCD17047EFF3108072B6704780F31088704700BF0B4A7F2313708021F8
:40040000517007E0DA0002F1804202F5F042013BDBB21370002BF5D1DB0003F1804303F5F04300221A7070470CC1FF1F0E4B70B51E460E4C0025E41AA410A54204D056F8F8
:40044000253098470135F8E700F042F8084B094C1E46E41AA4100025A54204D056F8253098470135F8E770BDDC040000DC040000DC040000E404000010B5431E0A449142D8
:4004800004D011F8014B03F8014FF8E710BD03460244934202D003F8011BFAE77047000000000000004F00400C00605100401000000001400010001401400008004001406C
:4004C000000A004C014000020050014020000000F8B500BFF8BC08BC9E4670474D000000D9000000F8B500BFF8BC08BC9E467047290000000805000008C1FF1F1000000061
:400500002000000000000000000000007F8000000100000000000000000000000000000000000000000000000000000000000000000000000000000000000000000000009B
:40054000000000000000000000000000000000000000000000000000000000000000000000000000000000000000000000000000000000000000000000000000000000007B
:40058000000000000000000000000000000000000000000000000000000000000000000000000000000000000000000000000000000000000000000000000000000000003B
:4005C00000000000000000000000000000000000000000000000000000000000000000000000000000000000000000000000000000000000000000000000000000000000FB
:4006000000000000000000000000000000000000000000000000000000000000000000000000000000000000000000000000000000000000000000000000000000000000BA
:020000040001F9
:0200000480007A
:40000000024F0040075200403E0001402C010140420201403B0301404404014042050140430601403C0701403E0801402B0901403E0A0140350B01403F0C0140360D014070
:400040003E0E0140260F0140491401403C1501403C1601403C17014040180140411901403E1A0140391B014002400140014101400642014007430140034401401345014089
:400080000346014003470140094801400C490140104C01400E4D0140055001400151014001100ACD0CE014FF181119AA281029102C4F01010501085509020AAA0C960D020D
:4000C0000E69110112FF150119011CFF1D012033210122CC24FF280F29012AF02CFF3101330234FF39023E103F05580459045F01806981FF82968433855586CC87AA8BFF32
:4001000090FF91FF94FF990F9BF09EFF9FFFA133A3CCA455A6AAA80FA969AAF0AB96AEFFB0FFB7FFBE01BF40D804D904DF0103060404064008010A010C010D040E011080DE
:400140001140132814021544176418081F01239025802B882C84318032263401376038083A203B823C203D043E0183088401881089048B088F80C033C2B9C4EFCAA5CCBF14
:40018000CEEFE202E6010069029603FF043306CC09FF10FF13FF14FF155517AA190F1BF01CFF213323CC245526AA27FF280F29962AF02B692CFF30FF37FF3E013F405804F6
:4001C00059045F01800481FF860287FF8801890F8BF08C01900191FF9555960297AA98049C049D339FCCA004A401A801A996AB69AC04ADFFB204B3FFB401B602B828BA801C
:40020000BE14BF04D804D904DF01011203220404064009080A820B040C010D040E010F201208138A14021724182019401A081F022208270228062C9430813304340137246D
:4002400039283A023E033F2083088601881289109004910893109609978098059A409B809C029E209F24A080B004B242B302B484B620C03FC2BFC4EFCAECCCEBCEA7E20C37
:40028000040F05FF06F0090F0AFF0BF00C550D550EAA0FAA12FF13FF1AFF1BFF1D331FCC203322CC26FF286929692A962B962DFF30FF35FF3B0C3E013F10580459045F01C9
:4002C00082408303855F89058A048D40910F9240960397209A209B0F9E029F20A208A30AA608A720A90CAA10AC03AD10B003B150B20CB30FB410B520B660B710BA20BE4536
:40030000BF55D804D904DF010020014002100680070808010B080E69109414021620172119021C801E011F28210822082324241025012706280429802B012E812F28309147
:40034000340235503618370239E83A103B083C403D0A3E403F10801088508980902091A8931096829784981599409D029E20A080A508A720A940AB04B110B320C057C2FA57
:40038000C4FECAFCCCFDCEFEE620EA01010802010314060207200A010B020E010F10100413101401150416021718191C1A011B211E081F0121012201230226012701280C2C
:4003C0002B102E012F10300C333034033503370C38023A203B283E01580459045F0185018AFF8C558EAA90FF96FF970298FF9B02A033A101A2CCA40FA6F0A702A869AA9675
:40040000B0FFB501B702B9A0BE01BF50D804D904DF0100200140044405200680081109080E680F81108412101402151017051A801C041D101E8022102301240125142604EA
:40044000270129082B402D282EA133283402369137043B043C413D38410C8640902091E894409682978098159A109B049D109EA09F01A090A301A504A604AF48C0F3C2FE7F
:40048000C4FECAF3CCF6CEF2EE04013302FF03CC0833090F0ACC0BF00C690D550E960FAA11961369140F16F017FF1AFF1BFF1C551EAA21FF26FF2BFF2EFF36FF37FF3E409A
:4004C0003F40580459045F01850188FF89018C698D028E9690FF9102940F950196F098FF99029C559D029EAAA433A501A6CCA8FFA901AD02B101B2FFB502B922BE04BF11C4
:40050000D804D904DF01020103080687070909680A010B800D280E010F2813281508174419041D4021012304258029642F8831803215372538943D803F218A039094920A0C
:400540009601978099209E079F68A528A788AA04C0D3C2EFC4A6CAAECCEFCEBE01960369053307CC09FF0AFF0C960E690FFF10FF140F150F16F017F018FF1C551EAA21FF38
:40058000243326CC28FF29FF2D552FAA33FF34FF3E103F04580459045F0181698396853387CC88338ACC8C698E968FFF90FF915593AA940F950F96F097F09AFF9BFF9C5549
:4005C0009DFF9EAAA1FFA8FFAEFFB1FFB4FFBE10BF01D804D904DF010201030806010708080409280A410B800D280E430F0213281520176019201C04220424802B892F805E
:40060000310834043601376039243A053B803D043E4289019010910192029520960197809E059F28A204A528A789AA80B020B202C0C3C2FFC4C6CA8DCCF2CEDFE680EA0114
:40064000EE2003FF09960AFF0B690C330D550ECC0FAA110F13F014FF15FF180F1AF01CFF1DFF205522AA2496266928FF29FF2D332FCC32FF35FF38203E143F10580459041D
:400680005F0181968369853387CC88FF8BFF8C968E698FFF90FF940F950F96F097F09AFF9C559EAAA3FFA433A6CCA8FFA9FFAD55AFAAB1FFB2FFBE04BF01D804D904DF014E
:4006C000020103080580060809280A010B800C280F011328140416A018101E081F04220124042B892C082D8031083484360239203A053B803D013EA08004850188808A08B8
:400700008B0493019501980499809A209E88A008A420B002B224B5A0B601C0C3C2EFC476CA3DCCD2CEBFE2A8EA10EEE001FF05FF09690B960C330D550ECC0FAA105512AA0D
:4007400016FF17FF18FF190F1BF0213322FF23CC240F26F02AFF2BFF2C962E6931FF34FF3E103F01580459045F0183FF850F87F088FF89968B698D558FAA96FF97FF980F8D
:400780009AF09BFF9D339EFF9FCCA055A2AAA469A696A8FFA9FFAC33AECCB1FFB4FFBE10BF01D804D904DF010201060808140B880C280F01102A11051301140416A1192011
:4007C0001E042040250128042A012C0830283414358039013AA83B883D053EA08101840888048C40C041C2EEC4FFCA25CC76CEFFE242E680000402490404061107FF090F84
:400800000A290BF00C290D550E520FAA122D13FF140416021A2D1BFF1C041D331E291FCC2404262929962A2D2B692DFF306031FF3203341836043A2A3E403F0158045904B3
:400840005F01811C822583208609870189088B048F1093019655970199059A029B1A9C559EAA9F02A295A301A655A720AF01B030B103B20CB330B403B50CB6C0BAAABB0AE2
:40088000D804D904DF01002401820505088009820A200B080C200D200E211020112014801708180519021A601B281C0A1DA71F04220125102620275828042B012D082F42E5
:4008C00030913610374539A83DA03E0591A89205938094019642981599889B059C809D059F50A090A140A210A303A405A620A728AA40C03FC2EFC436CADCCCFDCEFE02048D
:400900000301060407010A350E060F0113011429165217011A041B011E45222D262927012B01300332043418366037013AA23E043F40580459045F0182088408850288017F
:400940008D029002930194019504980199049C04A001A301A404A504A902AA09AC01B001B104B206B302B608B701B902BE45BF45D804D904DF0100110108031004440530CF
:400980000680074008820A280E2A1120122213011705181019801A811C601D101E261F422206230125402680288829082F2831013328340A350536203B443C0A3E403F4487
:4009C000900491A8922094409643978498159B059D289E80A080A110A204A301A691A728B410C0FEC2EFC43FCA67CCE7CEDA013303CC05FF080F0AF00D690F9610FF110F3B
:400A000013F014FF19FF1AFF1C551D551EAA1FAA203322CC23FF2AFF2BFF2C692E9632FF37FF3E043F40580459045F0181018502870488FF89018C698E96910192FF940F27
:400A4000950296F0970499019AFF9C559D019EAAA033A101A2CCA501A8FFA901B2FFB306B501B920BE04BF14D804D904DF010080020103080704084109280A050B800C05F5
:400A80000D200E0113211681172018101D0422102310268029042B842C042D012F4832A93440352036023720381039023B043C803E443F0182848301910292019384962003
:400AC00097019A019B209E04A120A208A308A508AB84AD04AE80AF60B608B748C043C2FFC4DACAA7CCBFCED7E201EA0AEC40EE0402FF053307CC08FF0BFF0C0F0D960EF0F8
:400B00000F691096110F126913F016FF1AFF1BFF1C551EAA2033215522CC23AA2BFF2DFF31FF32FF3E043F01580459045F0180FF85FF89338AFF8BCC9096910F926993F0BF
:400B400094FF98FF9BFF9C559DFF9EAAA00FA155A2F0A3AAA833AACCABFFAD69AF96B5FFB6FFBE40BF10D804D904DF0101210242034105200640084409200A400B640C44A0
:400B80000D200E4013011510160417011B041F8022012620284029202A402C442E40312032023520360237403A043B603D103F0487109101924093119602984499209A04D3
:400BC000A120A202A620A784A908AA02AB04C05BC2FFC458CABDCCB5CE6EE008EA013380CC10A780580883028A10A780D640E68085809A109B02A780A808E640EE208420B1
:400C00008904E6010101030405010708081009020C200D048708881095099D01A420B101B501C00FC20FE204EE03AB04B102EE048A44E201E6012A082B8066089A109B023E
:400C4000A180A780CA40D8805180561058025F0298029A109B02A180A802D460D6C0EE800B040C800F208001960897049D109E40A480A710A910AC80AF04B710C207EA08F0
:400C80000244040105100A0867808740940196089D109E44AA04C00FC202D801000108010A0110011A01000300FFFF00FF000000000F0F000F000000000F0F000F0000009D
:400CC000E00000E00000000000000000FF0080FF800000000000000000FFFF00FF000000003F3F003F0000000D00421D1000100000000000000000000000000000000000F0
:400D000000000000000000000000000000000000000000000000000000000000000000000000000000000000000000000000000000000000000000000000000000000000B3
:400D40000000000000000000000000000000000000000000000000000000000000000000000000000000000000000000000000000000000000000000000000000000000073
:400D80000000000000000000000000000000000000000000000000000000000000000000000000000000000000000000000000000000000000000000000000000000000033
:400DC00000000000000000000000000000000000000000000000000000000000000000000000000000000000000000000000000000000000000000000000000000000000F3
:0200000490006A
:0400000000004005B7
:0200000490105A
:04000000BC90ACAF55
:0200000490303A
:02000000F8D135
:0200000490402A
:4000000000000000000000000000000000000000000000000000000000000000000000000000000000000000000000000000000000000000000000000000000000000000C0
:400040000000000000000000000000000000000000000000000000000000000000000000000000000000000000000000000000000000000000000000000000000000000080
:0200000490501A
:0C00000000012E13306900012E19293A6E
:00000001FF