:400000000040002011000000890000008900000008B5044B1A6803F53F5302331A6000F035F800BFFA46004010B5054C237833B9044B13B10448AFF300800123237010BD78
:4000400010C1FF1F0000000054040000084B10B51BB108480849AFF300800848036803B910BD074B002BFBD0BDE81040184700BF000000005404000014C1FF1F08C1FF1FC1
:400080000000000062B6FEE7FEE700BF08B5104E104D16E029686B68AC68002204E051F8040B43F8040B0432A242F8D1E868002203E0002143F8041B04328242F9D1103555
:4000C000013E002EE6D100F08BF9FFF7DBFFFEE701000000A004000008B5124A124B1A60124A136843F40073136000230AE0032B03D80F4A52F8231000E00E490E4A42F875
:40010000231001332F2BF2D90C4B1A780C4B1A70094A0C4B1A6000F0AFF800220A4B1A6008BD00BF0004FA050CED00E014ED00E0000000008900000000C0FF1FBC760040A3
:4001400004C1FF1F08ED00E000C1FF1FFEE700BFF0B40022174611E050F82760F3B226F0FF0608E001EB420511F812406D78A5550132013BDBB2002BF4D101371C2FEBD919
:40018000F0BC7047064B1B78DBB203F00701054A11701B09013213704422034B1A707047CF0100496E5800407658004008B50A46002100F046F908BD38B5F922244B1A8071
:4001C0001B2202331A70022203F27E231A7008224FF040231A70032103F5007319701D4B1B78DBB21C490B701C4B1A8041F25122023B1A80002419250CE0194B1B7803F033
:40020000010343EA440404F003044FF4F07000F0D7F8013D0DB1032CEFD115B90320FFF795FF104B4FF480721A8007221A7000220D490A704820023108701A700222033BB4
:400240001A700A4A137843F00103137038BD00BF8040004008010049A146004022420040254200400440004006400040A243004008B500F0DBF808BD70B572B6374A137816
:4002800043F00403137000240CE0354963001A1952000A4423445B00C8589188FFF786FF0134E4B2052CF0D94FF090402D49FFF74FFF2D4A137843F002031370103213782F
:4002C00043F002031370294C237843F040032370A2F58632513A137843F010031370244824490822FFF7C4FF234824490822FFF7BFFF234823490822FFF7BAFF2248234904
:400300000A22FFF7B5FF224822490A22FFF7B0FF214822490822FFF7ABFF214821490822FFF7A6FF204821490A22FFF7A1FF204A137843F0080313701E4E01253570FFF794
:400340003BFF812333701C4B1D70FFF71BFF1B4821460E22FFF78CFF70BD00BFE8460040580400007400004803500140A043004002510040B4080048C2510040BC0800485E
:40038000F2510040C408004810510040CC08004820510040D808004832510040E408004842510040EC08004850510040F4080048224300400048004004000840B043004039
:4003C0000230800803D000BF01380046FCD17047EFF3108072B6704780F31088704700BF0E4B70B51E460E4C0025E41AA410A54204D056F8253098470135F8E700F03EF851
:40040000084B094C1E46E41AA4100025A54204D056F8253098470135F8E770BD8804000088040000880400009004000010B5431E0A44914204D011F8014B03F8014FF8E788
:4004400010BD03460244934202D003F8011BFAE7704700000000000060510040100000000140001000140140000800400140000A004C01400002005001402000F8B500BFE4
:40048000F8BC08BC9E4670474D000000D9000000F8B500BFF8BC08BC9E46704729000000B004000008C1FF1F08000000200000000000000000000000000000000000000098
:4004C00000000000000000000000000000000000000000000000000000000000000000000000000000000000000000000000000000000000000000000000000000000000FC
:4005000000000000000000000000000000000000000000000000000000000000000000000000000000000000000000000000000000000000000000000000000000000000BB
:40054000000000000000000000000000000000000000000000000000000000000000000000000000000000000000000000000000000000000000000000000000000000007B
:40058000000000000000000000000000000000000000000000000000000000000000000000000000000000000000000000000000000000000000000000000000000000003B
:020000040001F9
:0200000480007A
:400000000E5200400503014040040140340501403D06014042070140420801403F0901403A0A0140310B0140101501403F160140451701403818014041190140391A01405B
:400040003B1B014009400140124101401142014012430140094501400946014009470140134801401E4901400E4C0140114D01400450014000C901550CE014FF18931955A7
:400080002015211929102C4F600361057805790C810487409404B404EE40053307CC090F0BF00C010E021001120213FF15FF180219551A011BAA1D691E041F9621FF2204F7
:4000C00028012A062C04300431FF340136023E513F01580459045F018108850687018B0F8C08900492039308940F980599059A029B029D08A208A405A602AD01AE08AF0660
:40010000B008B108B201B304B402B501B604B702BE55BF55D804D904DF010140060208600A400E400F18100111021310146119401A881C241E011F022101258427442A013D
:400140002E40310832A1346139103A043D023E023F188340860788308D408E418F04940497809D40A228A504AE28B140C081C27BC4BBCA11CCBFCEE6E002E210E682EA8851
:40018000EE020503080209060B010D010F02100511041403160419011A051B021E02210426052B042C023002320433043501360137023E453F54580459045F018096810179
:4001C0008269850188338ACC8B028CFF8D02910196FF970299019D019EFFA102A455A501A6AAA80FA901AAF0AD01B0FFB101B702B902BE01BF41D804D904DF01028503044B
:400200000520082009080A0A0C400E400F181110122814211A801C401E201F402202230224042540271029442A202B402C402D20312232443421394A3B103E403F988702B6
:4002400089608C448F049142920295109640979098209A019C419E04A108A2A8A304A501A602AE01B108B580B680B706C04BC2F5C4A6CAAFCCAFCE7FE240E660EA10EE50D2
:400280000001010F03F004010569079608010C100E261001115513AA140815FF162419FF1A2A1E0A200123FF2401280129332BCC2C013001321833FF3406362238023AAC3F
:4002C0003E013F04580459045F01810F83F086FF89698AFF8B968CFF900F915592F093AA953397CC99FF9C339ECCA055A1FFA2AAABFFAC96AE69B3FFB6FFBE40BF04D8048C
:40030000D904DF01008001200310041005460B810E260F8010021102150A176019801D021E262104272028482C4830083110330134083510370139203A023E023F08811084
:40034000844089808E068F0190109122938194409A809B119C489D109E02A042A208A344A408A680B040B140B280B304B540B701C0F7C2F9C4F9CAA5CCE7CEC5E69CEA400E
:40038000EE20010F03F0055507AA09960B690C0F0EF0109612691433153316CC17CC185519FF1AAA1CFF23FF26FF2AFF2BFF31FF36FF3E403F01580459045F01813383CC43
:4003C000855587AA8AFF8C558EAA8FFF943396CC98699A969BFF9EFF9FFFA10FA3F0AAFFAC0FAD69AEF0AF96B2FFB3FFBE04BF04D804D904DF010201055007090840090AAF
:400400000B080C480D180F0813281408160317201B401C102101260828482C022D402F40300831103640371039203A023B083C883F01851286408A808C408F109380A00486
:40044000AC04AF40C0C1C2EFC4C6CA95CC36CED7E2C0E642EA08EE02854086409D40A240A804A910AB40AF10B180B208B504B640E204E608EA20EE80030B0704090D0B02F4
:400480000C0D0F041002110313081406160919041A021C051D0A1E081F0124022C012E0C300431043202330834083502360137013E553F55580459045F018405853387CCB4
:4004C000890F8A028BF08C018E0491FF92029401960697FF99559BAA9D969F69A001A204A3FFAE02B002B1FFB404B601BE51BF01D804D904DF010202032407020A400B107A
:400500000C400E400F18114213021421170418081A801B401D801EA01F10210224402510260827012A01310832A13460360239103A043D023E403F18804082208310844139
:40054000860387308A108B018E60915092029640971098209A059B109C419D449E20A109A2A0A304A502B104B210B521C087C2FCC4A9CA01CCBFCEF6E29AE403E628EA80C9
:40058000010F03F0059607690AFF0C550EAA115513AA143315FF16CC189619FF1A6921FF22FF28FF29332BCC2C0F2EF031FF32FF3AC03E043F01580459045F01810F83F055
:4005C000859686FF87698C558EAA915593AA94FF953397CC9CFFA00FA2F0A469A696A833AACCB0FFB3FFBE01BF04D804D904DF01022003010510070108480C080F081008A9
:4006000011051448160219021D441E01210827402C4831023208340835103620370139083A013D053E023F088101820183108520861589088A088D209204938094409840D3
:4006400099109A869B119C089D669F40A00AA102A211A304A501A680AC08B208B601C0C5C265C4DECAA0CCE3CEC3E204E640EA12EE80053306FF07CC08FF0CFF0D0F0FF03C
:40068000100F116912F0139619FF1C691E962455255526AA27AA283329FF2ACC2FFF34FF37FF3E103F40580459045F01830F84FF850288338ACC8C0F8EF08F099096910204
:4006C0009269945596AA9B029F01A0FFA4FFB104B301B4FFB502B708BB8ABE10BF10D804D904DF01012003160480060407100A020B800C020F2010101204168017041A088E
:400700001D202302244425042680281029202A802B12300232013310369138803A043B803C403E05800C860492059380944099209A849B109C089F02A002A211A310A524AD
:40074000A680B104B504B702C0E7C239C436CA0ECCB5CEDAE604EA10EE40501053025520560158046440D4E0D660D880500454405B205D18602063026740830285209C444C
:400780009E01A520A702B410D4E0D6E0D8C0E230524056088208842088048E209408951097409C649D089E019F20A440B301D460E690874088408C208E0195109740998040
:4007C0009C409D089E01A220A440AE40B404B580B720E640EA10004001040420078008040B040F42C00FC20F87408C10906093449B80A301AC04AD04E602814086028F203B
:40080000B305B440B780E202EA03EE0C5308548058105D8080028108880189108D049510982099809D08A220B040D4E0D620E220E6205220562058215C015E8063406501B4
:4008400071047402810187409001982199049A20A002A260A881AB08AC10B260D4E0D6E0D8C0DC80DE20E220E640EAA0EEC009200E010F10812089028A01954097049E027B
:40088000A720AF04C207E404E60101400320050806020B0461028108954097049E02A102A720B310C00FC202D802EE0100010C0110011C0100FFFF00FF000000000F0F00C2
:4008C0000F000000000F0F000F000000E00000E00000000000000000FF0080FF800000000000000000FFFF00FF000000003F3F003F0000000D00421D1000100000000000B8
:4009000000000000000000000000000000000000000000000000000000000000000000000000000000000000000000000000000000000000000000000000000000000000B7
:400940000000000000000000000000000000000000000000000000000000000000000000000000000000000000000000000000000000000000000000000000000000000077
:400980000000000000000000000000000000000000000000000000000000000000000000000000000000000000000000000000000000000000000000000000000000000037
:4009C00000000000000000000000000000000000000000000000000000000000000000000000000000000000000000000000000000000000000000000000000000000000F7
:0200000490006A
:0400000000004005B7
:0200000490105A
:04000000BC90ACAF55
:0200000490303A
:020000006F840B
:0200000490402A
:4000000000000000000000000000000000000000000000000000000000000000000000000000000000000000000000000000000000000000000000000000000000000000C0
:400040000000000000000000000000000000000000000000000000000000000000000000000000000000000000000000000000000000000000000000000000000000000080
:0200000490501A
:0C00000000012E13306900012E179FED47
:00000001FF