:400000000040002011000000BD000000BD00000008B5044B1A6803F53F5302331A6000F04FF800BFFA46004010B5054C237833B9044B13B10448AFF300800123237010BDF6
:4000400010C1FF1F000000004C080000084B10B51BB108480849AFF300800848036803B910BD074B002BFBD0BDE81040184700BF000000004C08000014C1FF1F08C1FF1FC9
:400080000000000010B584B062B601A80A2100F07DFB00F049FA00F055FB10F0100FFAD000F08EFB044600F053FB002300E001339C42FCD800F08AFBEDE700BFFEE700BF01
:4000C00008B5104E104D16E029686B68AC68002204E051F8040B43F8040B0432A242F8D1E868002203E0002143F8041B04328242F9D11035013E002EE6D100F06DFBFFF744
:40010000C1FFFEE701000000AC08000008B5124A124B1A60124A136843F40073136000230AE0032B03D80F4A52F8231000E00E490E4A42F8231001332F2BF2D90C4B1A7857
:400140000C4B1A70094A0C4B1A6000F0AFF800220A4B1A6008BD00BF0004FA050CED00E014ED00E000000000BD00000000C0FF1FBC76004004C1FF1F08ED00E000C1FF1F0D
:40018000FEE700BFF0B40022174611E050F82760F3B226F0FF0608E001EB420511F812406D78A5550132013BDBB2002BF4D101371F2FEBD9F0BC7047064B1B78DBB203F0A6
:4001C0000701054A11701B09013213704422034B1A707047CF0100496E5800407658004008B50A46002100F028FB08BD38B5F922244B1A801B2202331A70022203F27E235E
:400200001A7008224FF040231A70032103F5007319701D4B1B78DBB21C490B701C4B1A8041F25122023B1A80002419250CE0194B1B7803F0010343EA440404F003044FF4F1
:40024000F07000F0E9F8013D0DB1032CEFD115B90320FFF795FF104B4FF480721A8007221A7000220D490A704820023108701A700222033B1A700A4A137843F001031370F6
:4002800038BD00BF8040004008010049A146004022420040254200400440004006400040A243004008B500F0BDFA08BD70B572B63F4A137843F00403137000240CE03D49BA
:4002C00063001A1952000A4423445B00C8589188FFF786FF0134E4B2062CF0D900240BE03449A3001A1952000A44D06A116B0622FFF7D8FF0134E4B2002CF1D04FF0904018
:400300002D49FFF73FFF2D4A137843F0020313701032137843F002031370294C237843F040032370A2F58632513A137843F010031370244824490822FFF7B4FF2348244903
:400340000A22FFF7AFFF234823490822FFF7AAFF224823490A22FFF7A5FF224822490A22FFF7A0FF214822490822FFF79BFF214821490822FFF796FF204821490A22FFF7D1
:4003800091FF204A137843F0080313701E4E01253570FFF72BFF812333701C4B1D70FFF70BFF1B4821460E22FFF77CFF70BD00BFE8460040500800008000004803500140EC
:4003C000A043004002510040E8080048C0510040F0080048F2510040FC08004810510040040900482051004010090048325100401C0900484251004024090048505100404E
:400400002C090048224300400048004004000840B0430040000000000230800803D000BF01380046FCD17047EFF3108072B6704780F31088704700BF01BE704770B504468D
:400440000E46074B1D681F2802D90020FFF7F4FF04F01F04103455F8240045F8246070BD08ED00E038B504460D46072902D90020FFF7E2FF1F2C02D90020FFF7DDFF04F0FF
:400480001F0000F1604000F564406D01EDB2057038BD00BF70B50122134B1A7081220E3B1A70202602331E700F2511331D70002401331C704FF400420C4B1A602846072139
:4004C000FFF7D0FF28460A49FFF7B8FF1022094B1A70094B1C70094B1C70094B1C70304600F04CF970BD00BFD649004080E100E0510500002DC1FF1F31C1FF1F30C1FF1F61
:4005000038C1FF1F08B5FFF78FFF064A137843F0040313701032137843F004031370FFF787FF08BDA543004008B5074B1B7823B9FFF7B0FF0122044B1A70FFF7E3FF4FF49E
:400540000042024B1A6008BD2CC1FF1F00E100E008B5714B1B78DAB2704B1B7813F0400F40F0D8806D4B1B7813F0100F00F0CF8012F0200F03D102F00903092B15D1674BA6
:400580001B78DBB2112B10D165490B7803F0EF030B70644B197801F0DF011970197841F01001197010215D4B197012F0010F00F0B18012F0080F41D05B4B1B7813F0010F6C
:4005C0002BD05A4B1B785A4A1278DBB2934215D2564A1378DBB257490968CB5CDBB252490B7014214C4B197013780133DBB213704C4A137843F0020313700AE0FF224A4B1E
:400600001A701422013B1A70464A137843F0060313701222414B1A7008BD10223E4B1A7011223E4B1A703F4A137843F0200313703B4A137843F01003137008BD374B1B7820
:40064000DBB2112B20D13C4B1B783C4A1278DBB2934210D2344B1978C9B21022013B1A70354A1378DBB236480068C15413780133DBB2137008BD0022274B1A70294A13788D
:4006800043F04003137008BD244B1B78DBB2122B39D112F0020F23D1244B1B78244A1278DBB2934210D2214A1378DBB221490968CB5CDBB21C490B700421174B19701378D4
:4006C0000133DBB2137008BDFF22174B1A700422013B1A70134A137843F00403137008BDFF22114B1A700022013B1A700D4B1A7802F0FD021A701A7842F001021A701022B7
:40070000064B1A7008BD0020FFF796FE08BD1022024B1A7008BD00BFD74900402DC1FF1FD649004031C1FF1FD849004030C1FF1F40C1FF1F34C1FF1F38C1FF1F32C1FF1F78
:400740003CC1FF1F014B1878704700BF31C1FF1F4FF40041064B1960064B18781A7802F02F021A70044B196000F0F000704700BF80E100E031C1FF1F00E100E000F07F00EF
:40078000014B1870704700BFCA490040024660B14FF400430548036005480260054A11700021054A1170054A1360704780E100E03CC1FF1F32C1FF1F38C1FF1F00E100E0DF
:4007C000014B1878704700BF38C1FF1F0022014B1A70704738C1FF1F0E4B70B51E460E4C0025E41AA410A54204D056F8253098470135F8E700F048F8084B094C1E46E41A2B
:40080000A4100025A54204D056F8253098470135F8E770BD9408000094080000940800009C08000010B5431E0A44914204D011F8014B03F8014FF8E710BD0346024493421D
:4008400002D003F8011BFAE77047000000000000C8490040190060510040100000000140001000140140000800400140000A004C0140000200500140200000006052004021
:40088000E008004806000000F8B500BFF8BC08BC9E4670474D0000000D010000F8B500BFF8BC08BC9E46704729000000C008000008C1FF1F08000000380000000000000091
:4008C00000000000000000000000000000000000000000000000000000000000000000000000000000000000000000000000000000000000000000000000000000000000F8
:4009000000000000000000000000000000000000000000000000000000000000000000000000000000000000000000000000000000000000000000000000000000000000B7
:400940000000000000000000000000000000000000000000000000000000000000000000000000000000000000000000000000000000000000000000000000000000000077
:400980000000000000000000000000000000000000000000000000000000000000000000000000000000000000000000000000000000000000000000000000000000000037
:020000040001F9
:0200000480007A
:400000000D52004009030140430401403E050140390601403F0701403D080140390901403A0A0140260B0140040D01400E1501403F160140431701403A18014044190140A9
:400040003A1A01403D1B01400840014013410140154201400F430140034401400E450140074601400B470140124801401D490140164C0140184D014002500140015101401B
:40008000009501C90CE014FF18A519632025211C281029102C4F7803790582048A108B108D40A604B604E221E690EA400103030C060209080A050B030F0410011204150A11
:4000C000170119041E0724042601280229042C022D092F0231023202330834013504360437013E543F55580459045F018103830C85048709880A89028A0490029105920C0D
:4001000093089401950298019C0A9E05A001A80CA908AA02AB05AD02B002B102B204B304B408B501B601B708BE55BF55D804D904DF010010032007080A400B010D280E446C
:400140000F011004134815021711180819081B401C041E9121502202231024802544261028042B022C042F023120320833203608370938103B413C103E043F01821085404C
:40018000881089508D088F4091049408958097109A14A606AA02AD04B404C046C2F9C457CA3CCCC6CEEDE2C0E6E0EA10EE020101030E09020F01100C1202170A1C041E0BC5
:4001C000240A26052701280629012A092D02300131013208330834023504360437023A023B283E543F41580459045F018102831C86FF88698A968F1592FF950197189B056E
:400200009EFFA00FA2F0A455A6AAA833AACCB10CB2FFB303B514BBEEBE04D804D904DF01000402140A800B020E400F0110201116171818201C201D401E481F02212922807C
:4002400023412410254027582C142F023014312837083B413C103F4182408308864089528B028F409104920194109502964097419A149C049D409F18A210A410A528A60453
:40028000A702A840A904AE40B404C006C299C46ECA70CC46CEB9E004E210E621EE400033010102CC070209010F021055110112AA16FF170219011D011EFF200F210122F0E9
:4002C000250128FF29022C962D012E69310134FF370239023E103F41580459045F0183FF84FF87FF890F8BF08EFF9055915592AA93AA9BFF9C0F9D699EF09F96A069A29681
:40030000A4FFA833AACCAD33AFCCB0FFB5FFBE01BF10D804D904DF01020103300680088009020D060F01110412801320148017501A401E042220250126402A802E442F44C4
:4003400032803361354036223708390C3A013B213C043E013F908004830889028A028B0992019310950C972199409C809F21A108A202A502A6C0A720C015C2B9C4DECAF82E
:40038000CCFDCEF7E280E480E60103FF04FF05FF1055115512AA13AA140F16F01BFF1CFF1D961F692096210F226923F024FF283329332ACC2BCC33FF36FF3E403F0458044D
:4003C00059045F01806981FF829687FF88338ACC8D0F8FF09055915592AA93AA96FF99339BCC9CFF9D969F69A00FA2F0A7FFA8FFB1FFB6FFBE40BF01D804D904DF010330AE
:40040000064409020B210D060F01110412C413201480168017101A011D4023102602288029102F203280332135103680372139083B013D043E803F01A108A640C054C2BD6F
:40044000C45ECA45CCBDCED3EE0281088A40E221E62086108C109010A210AB40AD20AE01B020B404B601E210E804EA11EC020D080F03120814061601170418041A031B04FF
:400480001C0E1D0A1E011F0520032204250B2608280829082B032F04300831083201330234023504360437013E553F55580459045F01803382CC84FF8596876989FF92FF9D
:4004C00094FF99559BAA9FFFA00FA133A2F0A3CCA455A50FA6AAA7F0A869AA96ABFFB3FFB6FFBE40BF04D804D904DF010102021008080A800C140E400F021020110212043D
:40050000150217181B401C101D101E82202025282741280829022A082C142D202E4030203240368037183A143F40811083408410852886808701881089018B019004910218
:4005400092C19340981C99029A1C9B18A020A101A290A640A808AB11B410B501B608C00CC2FCC47ECA77CC7CCE16E40AE660E804EE040033010102CC050209010C550D01B1
:400580000EAA10691296130214FF150119011CFF1D01200F210122F0250229022AFF2D01330236FF370139803E403F44580459045F01889689558A698BAA8C338ECC90552E
:4005C00092AA93FF9596976999FFA133A3CCA50FA7F0A80FAAF0ABFFB0FFB3FFBE01BF04D804D904DF01002002010680070109010D040E800F011004148819021F4023109E
:4006000026C0271029042A022B082E012F1630023108321034023628374039203D053E403F1082018504871489058D028F10922095089789988099049A829B01A109A208EA
:40064000A308A680A720AA10AB40AC80AE80AF30B504B608C093C2B8C452CAF7CCF7CEF4E020E20CE480E640EA12EC40EE0608FF09550BAA0C330ECC13FF149615961669B7
:40068000176918FF1BFF1CFF213323CC240F250F26F027F0285529FF2AAA30FF35FF3E013F10580459045F0184FF85698796880F890F8AF08BF08C338D338ECC8FCC92FF9D
:4006C00094FF95FF98559AAAA469A696A7FFA955ABAAADFFB1FFB6FFBE40BF01D804D904DF0102010308060B0718081009080B020C060D1011101308150417041B021E01A9
:4007000022202740280429042A0A2B582C122D102F013012310832103314340439303D043FA08F01912092209601970199049A029F40A002A108A308A620A702A808AA4057
:40074000AB20AC06B010B110B402C0E3C277C426CA77CC47CE74EA09EC60EE045310541058205F286220D4E0D6A0D8405080510254405C025D1062086301641088108B10B7
:400780008F2097209F28A410A620B420D4E0D6E0D8C03E10521055088301868089108A188C808F01951097019C129F08A4C0A608A902B620CE20D460E2C0EA80841088409F
:4007C0008C809302961099019A809C10A440A909AC02B708E640EAA0EE4010101501C40C022404400502088009010C200D088204890891019810C00FC20FE60490409101EA
:4008000098909902A020A101AE208080882089029040910198909902A020A101E201E60451025210550156808141840285028A108D2093029610988099019A80D4E0D62096
:40084000E250E6A05004552057025880590163206408670270027D4084088C049140930298809901A002A120A312AA10AF02B710D4E0D6E0D8C0DC80DE20E610EA900A0190
:400880000C8410401320148078107D01808086408E02910195049810A540A840AD44B501C207C40EDE03E002EA080144064007040940660278407C808F04954498C09A0243
:4008C0009E40A540A940AB20AE01B004C00FC202D801DC01DE04E608EE0100010A0103C0263500003000000000FFFF00FF0000003000000F3F003F0000000000000F0F00E4
:400900000F000000E00000E00000000000000000FF0080FF800000000000000000FFFF00FF000000003F3F003F0000000D00421D10001000000000000000000000000000A4
:400940000000000000000000000000000000000000000000000000000000000000000000000000000000000000000000000000000000000000000000000000000000000077
:400980000000000000000000000000000000000000000000000000000000000000000000000000000000000000000000000000000000000000000000000000000000000037
:4009C00000000000000000000000000000000000000000000000000000000000000000000000000000000000000000000000000000000000000000000000000000000000F7
:400A000000000000000000000000000000000000000000000000000000000000000000000000000000000000000000000000000000000000000000000000000000000000B6
:0200000490006A
:0400000000004005B7
:0200000490105A
:04000000BC90ACAF55
:0200000490303A
:02000000E3C15A
:0200000490402A
:4000000000000000000000000000000000000000000000000000000000000000000000000000000000000000000000000000000000000000000000000000000000000000C0
:400040000000000000000000000000000000000000000000000000000000000000000000000000000000000000000000000000000000000000000000000000000000000080
:0200000490501A
:0C00000000012E13306900012E19142A93
:00000001FF