:400000000010002011000000ED010000ED01000010B500F0F3F8C04670B5124D12232B60182000F019FA104A104B1A600024104B1C60104A104B1A60802212060F4B1A6097
:400040000F4B1C6040220F4B1A600F49072000F05FF9072000F050F90C4B1C6011232B6070BDC046300010400600008004010B400003014040FF00800000014008010B409A
:4000800000010B4008010140990500000C020B4010B572B600240FE020486200131959000B00411889881A5AC31858880004104300F096F80134E4B2012CEDD9184A194B67
:4000C0001A60EE221202184B1A6099231B04174A1360174A1360174A1360174A117806230B43DBB21370B222FF32144B1A600223134A1360134A13601349144A116080214E
:400100008900134A1160134A1360D8221201124B1A60FFF781FF00F053F810BD20070000FFFF0000000102400003024000500F4010500F4030500F4000700F400800044061
:400140000C0004400001044071120000080104400C010440180104400803044010B5064C2378002B07D1054B002B02D0044800E000BF0123237010BD480100200000000043
:400180001C070000084B10B5002B03D00749084800E000BF07480368002B00D110BD064B002BFBD09847F9E7000000004C0100201C070000C00000200000000062B6FEE7D1
:4001C0000323044A1360044A13600022034B1A607047C0463000304030003140000E3F4010B50A00002100F091FA10BD10B500F061FA03680C2B00D1FEE7FEE770B50F4EDB
:400200000F4D13E029686B68AC68002202E001C901C30432A242FAD1E868002202E0002102C304328242FAD11035013E002EE9D100F046FAFFF7C2FFFEE7C0460100000042
:400240008007000010B50E4A136801218B43136000230AE0032B03D89A000A49505800E009489900094A885001332F2BF2D9FFF70FFF034A116801230B43136010BDC04681
:400280000000104000000000ED0100000000002000230AE00D4A12683F210A400C49C95C8A4201D1033303E001332D2BF2D9032308490868084A02400A60084A9446634418
:4002C0001B78DBB2064A13607047C0462CFF0B402C07000000002240FFFFFFBFCDF1FF0F28FF0B40034B18688023DB05184000D001207047000022401F2318401E3B8340F0
:40030000014A13607047C04600E100E001BE704770B504000D001F2802D90020FFF7F6FF1034A40080239B059C4664442068256070BDC04610B5040006E0084B586800F001
:400340007FF9074B9C46644480231B029C42F4D8024B9868604300F073F910BDC40000200080FFFF70B582B000F0C0F800285DD000F06FF9050000230AE02D4A12683F2135
:400380000A402C49C95C8A4201D1033303E001332D2BF2D903230021274A1160274A1268D20606D1254802681F318A4313390A430260234C2168234A1140234A5A43802336
:4003C000DB019C466244D20B013A5205520D0B001343A0225203134323601C4B1B680193302000F03DF91A4A13688021C9050B4313602668174B1E40002407E00120FFF707
:4004000099FF1034A30533430D4A1360EE2CF5D90120FFF78FFFFF239B051E43084B1E60019A0A4B1A60280000F017F902B070BD2CFF0B402C07000028FF0B4034FF0B406D
:400440000800224000F800C040420F003000104000002240FFFF3FC030B587B0040000F0F8F80500FFF73EFF002803D0FFF710FF012100E00021104B1B6800930F4B1B6841
:400480000193033C0E4B1B5D02930E4B1B68039304AA0D4B04936B4605930C4B1A600C480C4A10601B68012901D1FFF75BFF280000F0D3F807B030BD08010B4000010B40CA
:4004C0002C07000030001040B6EA0000080010401700008004001040034B1868C0231B02184000D00120704700010B40034B1B68002B01DA012000E000207047000022403B
:4005000010B500F0A6F8044A1368C02109020B43136000F0A2F810BD00010B4010B500F098F808490A68084B1A408024E40122430A600A6813408022120213430B6000F016
:400540008CF810BD00010B40FF3FFFFF70B5050000F07FF80400FFF7BFFF002803D0FFF7DDFF012100E0002108482840084A1568084B2B40184310601368012901D1FFF7EC
:40058000BFFF200000F069F870BDC0460404040010020B40FBFBFBFF10B5244B1B685B0715D5234B5B685B070ED5224B596A042001401F4C62688A4362605A6A82435A6269
:4005C0009B69002B00D098470420FFF7BFFF174B1B685B0518D5164B5B685B0510D5154B596A8022D2001140114842688A434260596A114A0A405A62DB69002B00D098470E
:400600008020C000FFF7A2FF084B1B685B030CD5074B5B685B0304D5064B1B6A002B00D098478020C002FFF791FF10BD10020B40D800002064010020FFFBFFFF000000002B
:400640000230800803D00138FDD1C046C046C0467047EFF3108072B6704780F31088704770B50400FFF7F5FF0500102C05D8104A136803218B43136016E0202C07D80C4929
:400680000B6803229343023A13430B600CE0302C07D807490B6803229343013A13430B6002E00020FFF732FE2800FFF7D6FF70BD30001040014B18687047C046400100203C
:4006C0000E4B70B500251E000D4CE41AA410A54204D0AB00F35898470135F8E700F03EF8084B00251E00084CE41AA410A54204D0AB00F35898470135F8E770BD6807000086
:4007000068070000680700007007000003008218934202D019700133FAE770470000000000300F40000400400F400004030405060708090A0B0C0E0F1011121314151617B1
:4007400018191B1C1D1E1F2021222325262728292A2B2E2F3031323334354300F8B5C046F8BC08BC9E4670478501000045020000F8B5C046F8BC08BC9E4670475D01000093
:4007800090070000C0000020880000004800000000000000010000000000E02EC05D00001800000000366E01F000000004040400000000000000000000000000000000000D
:4007C000000000000000000000000000000000005A070000000000000000000000000000000000000000000000000000000000000000000000000000000000000000000098
:4008000000000000000000000000000000000000E00000200000000000000000000000000000000000000000000000000000000000000000000000000000000000000000B8
:400840000000000000000000000000000000000000000000000000000000000000000000000000000000000000000000000000000000000000000000000000000000000078
:400880000000000000000000000000000000000000000000000000000000000000000000000000000000000000000000000000000000000000000000000000000000000038
:4008C00000000000000000000000000000000000000000000000000000000000000000000000000000000000000000000000000000000000000000000000000000000000F8
:4009000000000000000000000000000000000000000000000000000000000000000000000000000000000000000000000000000000000000000000000000000000000000B7
:0200000490303A
:0200000048F1C5
:0200000490402A
:200000000000000000000000000000000000000000000000000000000000000000000000E0
:0200000490501A
:0C0000000002110411A1000111065A9227
:0200000490600A
:0100000001FE
:00000001FF