:400000000040002011000000790300007903000008B5044B1A6803F53F5302331A6000F0ADF900BFFA46004010B5054C237833B9044B13B10448AFF300800123237010BD19
:40004000D0C0FF1F0000000074080000084B10B51BB108490848AFF300800848036803B910BD074B002BFBD0BDE81040184700BF00000000D4C0FF1F74080000C8C0FF1F3C
:400080000000000010B586B062B60A2103A800F07BFB00F045FA00F053FB10F0100FFAD000F08CFB044600F051FB002306E006AA1A4412F80C1C02F8181C0133A342F6D345
:4000C00000F082FB9DF8000000F084FBE3E700BFFEE700BFF0B40022174611E050F82760F3B226F0FF0608E001EB420511F812406D78A5550132013BDBB2002BF4D1013746
:40010000182FEBD9F0BC7047064B1B78DBB203F00701054A11701B09013213704422034B1A707047CF0100496E5800407658004008B50A46002100F094FB08BD38B5F9229F
:40014000244B1A801B2202331A70022203F27E231A7008224FF040231A70032103F5007319701D4B1B78DBB21C490B701C4B1A8041F25122023B1A80002419250CE0194B30
:400180001B7803F0010343EA440404F003044FF4F07000F025FB013D0DB1032CEFD115B90320FFF795FF104B4FF480721A8007221A7000220D490A704820023108701A70C0
:4001C0000222033B1A700A4A137843F00103137038BD00BF8040004008010049A146004022420040254200400440004006400040A243004008B500F029FB08BD38B572B628
:40020000424A137843F00403137000240CE0404D630019194A0011462A44084691882858FFF786FF0134E4B2052CF0D900240BE03749A3001819420088180622816A406A80
:40024000FFF7D8FF0134E4B2002CF1D031494FF09040FFF73FFF304A137843F0020313701032137843F0020313702C4C237843F040032370A2F58632513A137843F010032D
:400280001370082226492748FFF7B4FF0A2226492648FFF7AFFF082225492648FFF7AAFF0A2225492548FFF7A5FF0A2224492548FFF7A0FF082224492448FFF79BFF0822BF
:4002C00023492448FFF796FF0A2223492348FFF791FF0A2222492348FFF78CFF224A137843F008031370214D61232B70FFF726FF81232B7001221E4B1A70FFF705FF0E22B0
:4003000021461C48FFF776FF38BD00BFE8460040780800006400004803500140A0430040CC04004802510040D4040048C0510040E0040048F2510040E804004810510040E2
:40034000F4040048205100400005004832510040080500484251004010050048505100401C05004860510040224300400048004004000840B0430040FEE700BF08B5104E51
:40038000104D16E029686B68AC68002204E051F8040B43F8040B0432A242F8D1E868002203E0002143F8041B04328242F9D11035013E002EE6D100F023FAFFF763FEFEE7A1
:4003C00001000000CC08000008B5104A104B1A60104A136843F40073136000230AE0032B03D80D4A52F8231000E00C490C4A42F8231001332F2BF2D90A4B1A780A4B1A7049
:40040000074A0A4B1A60FFF7F9FE08BD0004FA050CED00E014ED00E0000000007903000000C0FF1FBC760040C0C0FF1F08ED00E001BE704770B504460E46074B1D681F2897
:4004400002D90020FFF7F4FF04F01F04103455F8240045F8246070BD08ED00E038B504460D46072902D90020FFF7E2FF1F2C02D90020FFF7DDFF04F01F0000F1604000F5CC
:4004800064406D01EDB2057038BD00BF70B50122134B1A7081220E3B1A70202602331E700F2511331D70002401331C704FF400420C4B1A6007212846FFF7D0FF0A49284658
:4004C000FFF7B8FF1022094B1A70094B1C70094B1C70094B1C70304600F04EF970BD00BFD649004080E100E049050000EDC0FF1FF1C0FF1FF0C0FF1FF8C0FF1F08B500F02D
:4005000077F9064A137843F0040313701032137843F00403137000F06FF908BDA543004008B5074B1B7823B9FFF7B0FF0122044B1A70FFF7E3FF4FF40042024B1A6008BDDC
:40054000ECC0FF1F00E100E008B5724B1B78DAB2714B1B7813F0400F40F0DB806E4B1B7813F0100F00F0D28012F0200F03D102F00903092B15D1684B1B78DBB2112B10D16E
:4005800066490B7803F0EF030B70654B197801F0DF011970197841F01001197010215E4B197012F0010F00F0B48012F0080F42D05C4B1B7813F0010F2CD05B4B1A78D2B2E9
:4005C0005A4B1B78DBB29A4215D2574A1378DBB257490968CB5CDBB252490B7014214D4B197013780133DBB213704D4A137843F0020313700AE0FF224A4B1A701422013B41
:400600001A70474A137843F0060313701222424B1A7008BD10223F4B1A7011223E4B1A703F4A137843F0200313703C4A137843F01003137008BD384B1B78DBB2112B21D15C
:400640003C4B1A78D2B23C4B1B78DBB29A4210D2344B1978C9B21022013B1A70354A1378DBB236480068C15413780133DBB2137008BD0022274B1A70294A137843F040033D
:40068000137008BD244B1B78DBB2122B3AD112F0020F24D1244B1A78D2B2244B1B78DBB29A4210D2204A1378DBB221490968CB5CDBB21C490B700421164B19701378013382
:4006C000DBB2137008BDFF22164B1A700422013B1A70134A137843F00403137008BDFF22104B1A700022013B1A700D4B1A7802F0FD021A701A7842F001021A701022064B9C
:400700001A7008BD0020FFF793FE08BD1022024B1A7008BDD7490040EDC0FF1FD6490040F1C0FF1FD8490040F0C0FF1F00C1FF1FF4C0FF1FF8C0FF1FF2C0FF1FFCC0FF1F77
:40074000014B1878704700BFF1C0FF1F4FF40041064B1960064B18781A7802F02F021A70044B196000F0F000704700BF80E100E0F1C0FF1F00E100E000F07F00014B1870B8
:40078000704700BFCA490040024660B14FF400430548036005480260054A11700021054A1170054A1360704780E100E0FCC0FF1FF2C0FF1FF8C0FF1F00E100E0014B18789A
:4007C000704700BFF8C0FF1F0022014B1A707047F8C0FF1F014B1870704700BF776500400230800803D000BF01380046FCD17047EFF3108072B6704780F31088704700BFA1
:400800000E4B70B51E460E4C0025E41AA410A54204D056F8253098470135F8E700F044F8084B094C1E46E41AA4100025A54204D056F8253098470135F8E770BDB408000009
:40084000B4080000B4080000BC08000010B5431E0A44914204D011F8014B03F8014FF8E710BD03460244934202D003F8011BFAE77047000000000000C84900401900000086
:400880000140001000140140000800400140000A004C0140000200500140200060520040C404004806000000F8B500BFF8BC08BC9E4670474D000000C9030000F8B500BFB3
:4008C000F8BC08BC9E46704729000000E0080000C8C0FF1F0800000038000000000000000000000000000000000000000000000000000000000000000000000000000000EE
:4009000000000000000000000000000000000000000000000000000000000000000000000000000000000000000000000000000000000000000000000000000000000000B7
:400940000000000000000000000000000000000000000000000000000000000000000000000000000000000000000000000000000000000000000000000000000000000077
:400980000000000000000000000000000000000000000000000000000000000000000000000000000000000000000000000000000000000000000000000000000000000037
:4009C00000000000000000000000000000000000000000000000000000000000000000000000000000000000000000000000000000000000000000000000000000000000F7
:020000040001F9
:0200000480007A
:4000000011520040010301403B0401403205014033060140370701400D150140371601403717014001190140011B0140094001401141014017420140164301400D440140CC
:40004000104501400546014005470140174801401D490140114C0140144D0140025001400151014000C301590CE0103C11661481189519C32025211C282029102CC13040DA
:4000800034307806790384100102040106020A030D020E0310041203170219011C041D012004280429012D03300431023402350136013E513F11580459045F018302880AB4
:4000C0008A018C0A8D0F8E01920F950299089B059C049D059F08A302A604A803A901AA08AB0CAC04B001B104B202B302B408B501B604B708BE55BF55D804D904DF010319FF
:4001000005500A430B020E4110401288140815881A801B601C201D211F40220223042645270828082B0A2C402F0831D0320833103550360839803B023E41812082018704DE
:400140008A408B408D019604A410A740B204B740C0C7C299C4EACAACCC7ECE99E230E680EE60000102020C020E01100111021202130C19041B0B2403290C2B032D0C2F034C
:400180003001310233043508360237013B803E413F15580459045F0182038A088D018E0F8F0A950297119E019F0BAA02AD04AF19B204B306B408B501B603B718BAABBB8CB3
:4001C000BF10D804D904DF0100020240030A054006400A020E401208150819701A421B0A1C801F402002214422882314258927092B022F0A314032083520370139808440C4
:40020000850187088B048E04958896469D109F01A204A581A688A70AAA40AB08B202B501B720C09BC211C422CA38CCAACE08E240E620EA40EE60810287409380A102A8020D
:40024000AA40AE40B102B610B740E804EA90EE100004020208010C06100211081205180119081F072103220123042406250527022B082D0A2F05300231043204330234017D
:40028000350837013E153F55580459045F0182018B018E029003910196019B029C019F01A102A602A902AA02AF03B001B102B402B701BE11BF41D804D904DB04DF010240E5
:4002C000030105500640070808020A420B100E400F08100413081508170119021A041D021E182101224026602750280629012B0C2C402E402F183040311032813561370125
:400300003B306802822483109108924293909502960499709A409B01A280A308AD08C0D9C25DC436CAFDCCBDCE04E208E208E804510855205A205D2061046680D4E0D6A01F
:40034000D840501053025501574059015C0262086410852096209D249E80A528D4E0D6E0D8C0E2103C205008570480108120840888028A408D04942096209C129D249E808A
:40038000A501A608A742B108B501CE20D460E260E68084108540870289108C2096209A409B409C109E80A040A410A501A702AA08AB40B040B744E250E640EA20EE800A40E6
:4003C0000C08110115045A015D0272407408C20CC40CD603DC01DE0401020F025301540857015C0463046708910596019D02C008C201D403D605D803910594049601970E00
:40040000A408910594049601970EA408522057805B405D2081018210830884109120962098209A409B40A040A140A410A501AE80D4E0D620E230E6A0EA4051105440550291
:4004400058205B086202641066407B027D8082028702912098309A409B08A040A142AA20AC10B380B522D4E0D6E0D8C0DC80DE20E290EEC00B080C080F0410401310148096
:4004800079017D048710910594049601970EA408C207C40EDE0300040B020E015F04638078407C80930494049601970298C0A340AB40C008C203D601D802DC01DE0400017B
:4004C0000A0103C0AA3C00003000000000FFFF00FF000000F00000CF3F00FF0000000000000F0F000F000000E00000EB0B00000000000000FF0080FF80007E00000000009F
:4005000000FFFF00FF000000003F3F003F000000810040B13000300000000000D00030D01000C000000000000000000000000000000000000000000000000000000000008F
:40054000000000000000000000000000000000000000000000000000000000000000000000000000000000000000000000000000000000000000000000000000000000007B
:40058000000000000000000000000000000000000000000000000000000000000000000000000000000000000000000000000000000000000000000000000000000000003B
:4005C00000000000000000000000000000000000000000000000000000000000000000000000000000000000000000000000000000000000000000000000000000000000FB
:4006000000000000000000000000000000000000000000000000000000000000000000000000000000000000000000000000000000000000000000000000000000000000BA
:0200000490006A
:0400000000004005B7
:0200000490105A
:04000000BC90ACAF55
:0200000490303A
:020000008899DD
:0200000490402A
:4000000000000000000000000000000000000000000000000000000000000000000000000000000000000000000000000000000000000000000000000000000000000000C0
:400040000000000000000000000000000000000000000000000000000000000000000000000000000000000000000000000000000000000000000000000000000000000080
:0200000490501A
:0C00000000012E13306900012E17B90218
:00000001FF