:400000000040002011000000D1000000D100000008B5044B1A6803F53F5302331A6000F059F800BFFA46004010B5054C237833B9044B13B10448AFF300800123237010BDC4
:4000400010C1FF1F0000000078080000084B10B51BB108480849AFF300800848036803B910BD074B002BFBD0BDE81040184700BF000000007808000014C1FF1F08C1FF1F71
:400080000000000010B586B062B603A80A2100F08DFB00F059FA00F065FB10F0100FFAD000F09EFB044600F063FB002306E006AA1A4412F80C1C02F8181C01339C42F6D8EB
:4000C00000F094FB9DF8000000F096FBE3E700BFFEE700BF08B5104E104D16E029686B68AC68002204E051F8040B43F8040B0432A242F8D1E868002203E0002143F8041BFD
:4001000004328242F9D11035013E002EE6D100F079FBFFF7B7FFFEE701000000D008000008B5124A124B1A60124A136843F40073136000230AE0032B03D80F4A52F82310F4
:4001400000E00E490E4A42F8231001332F2BF2D90C4B1A780C4B1A70094A0C4B1A6000F0AFF800220A4B1A6008BD00BF0004FA050CED00E014ED00E000000000D1000000A2
:4001800000C0FF1FBC76004004C1FF1F08ED00E000C1FF1FFEE700BFF0B40022174611E050F82760F3B226F0FF0608E001EB420511F812406D78A5550132013BDBB2002B95
:4001C000F4D10137182FEBD9F0BC7047064B1B78DBB203F00701054A11701B09013213704422034B1A707047CF0100496E5800407658004008B50A46002100F034FB08BD4A
:4002000038B5F922244B1A801B2202331A70022203F27E231A7008224FF040231A70032103F5007319701D4B1B78DBB21C490B701C4B1A8041F25122023B1A8000241925B7
:400240000CE0194B1B7803F0010343EA440404F003044FF4F07000F0EFF8013D0DB1032CEFD115B90320FFF795FF104B4FF480721A8007221A7000220D490A7048200231EA
:4002800008701A700222033B1A700A4A137843F00103137038BD00BF8040004008010049A146004022420040254200400440004006400040A243004008B500F0C9FA08BDDB
:4002C00070B572B6414A137843F00403137000240CE03F4963001A1952000A4423445B00C8589188FFF786FF0134E4B2052CF0D900240BE03649A3001A1952000A44506A17
:40030000916A0622FFF7D8FF0134E4B2002CF1D04FF090402F49FFF73FFF2F4A137843F0020313701032137843F0020313702B4C237843F040032370A2F58632513A137893
:4003400043F010031370264826490822FFF7B4FF254826490A22FFF7AFFF254825490822FFF7AAFF244825490A22FFF7A5FF244824490A22FFF7A0FF234824490822FFF782
:400380009BFF234823490822FFF796FF224823490A22FFF791FF224822490A22FFF78CFF214A137843F008031370204E01253570FFF726FF812333701D4B1D70FFF706FFCB
:4003C0001C4821460E22FFF777FF70BDE84600407C0800006400004803500140A04300400251004070040048C051004078040048F251004084040048105100408C040048E4
:40040000205100409804004832510040A404004842510040AC04004850510040B404004860510040C0040048224300400048004004000840B04300400230800803D000BFD3
:4004400001380046FCD17047EFF3108072B6704780F31088704700BF01BE704770B504460E46074B1D681F2802D90020FFF7F4FF04F01F04103455F8240045F8246070BDB2
:4004800008ED00E038B504460D46072902D90020FFF7E2FF1F2C02D90020FFF7DDFF04F01F0000F1604000F564406D01EDB2057038BD00BF70B50122134B1A7081220E3B34
:4004C0001A70202602331E700F2511331D70002401331C704FF400420C4B1A6028460721FFF7D0FF28460A49FFF7B8FF1022094B1A70094B1C70094B1C70094B1C7030463B
:4005000000F04CF970BD00BFD649004080E100E0710500002DC1FF1F31C1FF1F30C1FF1F38C1FF1F08B5FFF78FFF064A137843F0040313701032137843F004031370FFF7E9
:4005400087FF08BDA543004008B5074B1B7823B9FFF7B0FF0122044B1A70FFF7E3FF4FF40042024B1A6008BD2CC1FF1F00E100E008B5714B1B78DAB2704B1B7813F0400FFC
:4005800040F0D8806D4B1B7813F0100F00F0CF8012F0200F03D102F00903092B15D1674B1B78DBB2112B10D165490B7803F0EF030B70644B197801F0DF011970197841F00E
:4005C0001001197010215D4B197012F0010F00F0B18012F0080F41D05B4B1B7813F0010F2BD05A4B1B785A4A1278DBB2934215D2564A1378DBB257490968CB5CDBB2524994
:400600000B7014214C4B197013780133DBB213704C4A137843F0020313700AE0FF224A4B1A701422013B1A70464A137843F0060313701222414B1A7008BD10223E4B1A70EB
:4006400011223E4B1A703F4A137843F0200313703B4A137843F01003137008BD374B1B78DBB2112B20D13C4B1B783C4A1278DBB2934210D2344B1978C9B21022013B1A70E9
:40068000354A1378DBB236480068C15413780133DBB2137008BD0022274B1A70294A137843F04003137008BD244B1B78DBB2122B39D112F0020F23D1244B1B78244A127863
:4006C000DBB2934210D2214A1378DBB221490968CB5CDBB21C490B700421174B197013780133DBB2137008BDFF22174B1A700422013B1A70134A137843F00403137008BDBD
:40070000FF22114B1A700022013B1A700D4B1A7802F0FD021A701A7842F001021A701022064B1A7008BD0020FFF796FE08BD1022024B1A7008BD00BFD74900402DC1FF1FDA
:40074000D649004031C1FF1FD849004030C1FF1F40C1FF1F34C1FF1F38C1FF1F32C1FF1F3CC1FF1F014B1878704700BF31C1FF1F4FF40041064B1960064B18781A7802F010
:400780002F021A70044B196000F0F000704700BF80E100E031C1FF1F00E100E000F07F00014B1870704700BFCA490040024660B14FF400430548036005480260054A117034
:4007C0000021054A1170054A1360704780E100E03CC1FF1F32C1FF1F38C1FF1F00E100E0014B1878704700BF38C1FF1F0022014B1A70704738C1FF1F014B1870704700BFD1
:40080000746400400E4B70B51E460E4C0025E41AA410A54204D056F8253098470135F8E700F044F8084B094C1E46E41AA4100025A54204D056F8253098470135F8E770BDAD
:40084000B8080000B8080000B8080000C008000010B5431E0A44914204D011F8014B03F8014FF8E710BD03460244934202D003F8011BFAE77047000000000000C8490040D3
:40088000190000000140001000140140000800400140000A004C01400002005001402000605200406804004806000000F8B500BFF8BC08BC9E4670474D000000210100000C
:4008C000F8B500BFF8BC08BC9E46704729000000E008000008C1FF1F0800000038000000000000000000000000000000000000000000000000000000000000000000000041
:4009000000000000000000000000000000000000000000000000000000000000000000000000000000000000000000000000000000000000000000000000000000000000B7
:400940000000000000000000000000000000000000000000000000000000000000000000000000000000000000000000000000000000000000000000000000000000000077
:400980000000000000000000000000000000000000000000000000000000000000000000000000000000000000000000000000000000000000000000000000000000000037
:4009C00000000000000000000000000000000000000000000000000000000000000000000000000000000000000000000000000000000000000000000000000000000000F7
:020000040001F9
:0200000480007A
:4000000011520040050301401A040140120501403D0601403807014001090140071501404116014037170140011B014009400140134101400F420140144301400E44014011
:400040001045014005460140074701401A4801401E490140114C0140144D0140025001400151014000C5015C0CE01038116A148118361955203C211529202CC13040318013
:4000800034307805790983048D20A504A904E640000402120C080E1316051A15300C321134033AEB58045B045F0191089B0E9D089F04AF0FB102B301B508B704BB8ABF1065
:4000C000D904DF0101820A1419821A142420252027A12D80344037A168028702A524A704C009C206CA10CCB00204050409040A0B0C0F100311031208130814041804190B41
:400100001D081F0320012104220A2D052F0A300131043202330834043502360837013E553F55580459045F018208870289018C0B8E0491019207960898089C019D019E0693
:40014000A102A702A803AA04AD01AF02B004B201B301B402B502B608BE55BF14D804D904DF0101820420058208410A140C010E140F2013201440180819011B841DA01F0681
:400180002020230824022505261029822B102D823041330134403721382039043D043E14800181018410861089208D818F01902092149408984099829B21A504A706A80607
:4001C000C0D9C27FC412CA9BCCB9CE66E250E6C0E804E8048104A104AF40B188B722EA62EE60000B070909090A040C0B0E04100413061401160A18081A031D041F0221084E
:4002000022042301250227042D042F0B300431013208330834023504360137023E553F55580459045F01800582028502870489018E0F910192089403960498079C089D013D
:40024000A306A504A608A702AD04AF03B001B204B304B402B501B608B702BE55BF54D804D904DF010182042005820608070808410A140C010E140F201308144018021A08F7
:400280001B0A1D041F61200821882484254429822B102D822E0830413441382039043D043E148004810485408604870888048C4190209214970298419982B304B788C0D90B
:4002C000C27FC414CADBCC99CE66E260E610EAC0EE40EA025004548058105D1066026702D4E0D6A0D880500854125B4060406280658283018C029408951097029C109E0261
:40030000A880D4E0D6E0D8C0E620EA203D80508057408410944895109C109D829E029F40A418A680CE20D460E21080508480850288028C048E028F40944895109C109D82EA
:400340009E02A488A540A680A740AB40E210E6B0EE8009020C02110115045D02630871027402C20CC40CD601D802DC01DE0401020C80508053015C045F40612067049105A5
:400380009D02A704C008C201D405D605D803910594049746A520A7049105940497469B08A520A704AB08520A54405C108004818084088602870288108E82901093029C1086
:4003C0009D80A002A208A408A540A680B110B608B701D4E0D620E260E6D052015310540257045B02631066026702700477108310900893329A039B02A002A304AD40AF10E2
:40040000B040B310B601B704D4E0D6E0D8C0DC80DE20E220EA500B040D200F4010401320148079017D049105940497469B08A520A704C207C40EDE0300040B020F085B083D
:40044000612078407C809404970298C09B08A120A704AF20C008C203D602D802DC01DE0400010A0103C00000A93C00003000000000FFFF00FF000000F00000CF3F00FF0004
:4004800000000000000F0F000F000000E00000E00000000000000000FF0080FF80007E000000000000FFFF00FF000000003F3F003F000000810040B1300030000000000047
:4004C000D00030D01000C00000000000000000000000000000000000000000000000000000000000000000000000000000000000000000000000000000000000000000005C
:4005000000000000000000000000000000000000000000000000000000000000000000000000000000000000000000000000000000000000000000000000000000000000BB
:40054000000000000000000000000000000000000000000000000000000000000000000000000000000000000000000000000000000000000000000000000000000000007B
:40058000000000000000000000000000000000000000000000000000000000000000000000000000000000000000000000000000000000000000000000000000000000003B
:4005C00000000000000000000000000000000000000000000000000000000000000000000000000000000000000000000000000000000000000000000000000000000000FB
:0200000490006A
:0400000000004005B7
:0200000490105A
:04000000BC90ACAF55
:0200000490303A
:02000000638615
:0200000490402A
:4000000000000000000000000000000000000000000000000000000000000000000000000000000000000000000000000000000000000000000000000000000000000000C0
:400040000000000000000000000000000000000000000000000000000000000000000000000000000000000000000000000000000000000000000000000000000000000080
:0200000490501A
:0C00000000012E13306900012E1793EF51
:00000001FF