:400000000040002011000000890000008900000008B5044B1A6803F53F5302331A6000F035F800BFFA46004010B5054C237833B9044B13B10448AFF300800123237010BD78
:4000400010C1FF1F0000000054040000084B10B51BB108480849AFF300800848036803B910BD074B002BFBD0BDE81040184700BF000000005404000014C1FF1F08C1FF1FC1
:400080000000000062B6FEE7FEE700BF08B5104E104D16E029686B68AC68002204E051F8040B43F8040B0432A242F8D1E868002203E0002143F8041B04328242F9D1103555
:4000C000013E002EE6D100F08BF9FFF7DBFFFEE701000000A004000008B5124A124B1A60124A136843F40073136000230AE0032B03D80F4A52F8231000E00E490E4A42F875
:40010000231001332F2BF2D90C4B1A780C4B1A70094A0C4B1A6000F0ADF800220A4B1A6008BD00BF0004FA050CED00E014ED00E0000000008900000000C0FF1FBC760040A5
:4001400004C1FF1F08ED00E000C1FF1FFEE700BFF0B40022174611E050F82760F3B226F0FF0608E001EB420511F812406D78A5550132013BDBB2002BF4D10137222FEBD913
:40018000F0BC7047064B1B78DBB203F00701054A11701B09013213704422034B1A707047CF0100496E5800407658004008B50A46002100F046F908BD38B50024234B1C8067
:4001C000582202331A70022203F27E231A7008224FF040231A70032103F5007319701C4B1B78DBB21B490B701B4B1A8041F25122023B1A8019250CE0184B1B7803F001031A
:4002000043EA440404F003044FF4F07000F0D8F8013D0DB1032CEFD115B90320FFF796FF0F4B4FF480721A8007221A7000220D490A704820023108701A700222033B1A702D
:40024000094A137843F00103137038BD8040004008010049A146004022420040254200400440004006400040A243004008B500F0DDF808BD70B572B6374A137843F0040324
:40028000137000240CE0354963001A1952000A4423445B00C8589188FFF788FF0134E4B2052CF0D94FF090402D49FFF751FF2D4A137843F0020313701032137843F002032D
:4002C0001370294C237843F040032370A2F58632513A137843F010031370244824490822FFF7C4FF234824490822FFF7BFFF234823490822FFF7BAFF224823490A22FFF71A
:40030000B5FF224822490A22FFF7B0FF214822490822FFF7ABFF214821490822FFF7A6FF204821490A22FFF7A1FF204A137843F0080313701E4E01253570FFF73DFF8123D6
:4003400033701C4B1D70FFF71DFF1B4821460E22FFF78CFF70BD00BFE8460040580400008C00004803500140A043004002510040F00C0048C2510040F80C0048F25100401F
:40038000000D004810510040080D004820510040140D004832510040200D004842510040280D004850510040300D0048224300400048004004000840B04300400000000036
:4003C0000230800803D000BF01380046FCD17047EFF3108072B6704780F31088704700BF0E4B70B51E460E4C0025E41AA410A54204D056F8253098470135F8E700F03EF851
:40040000084B094C1E46E41AA4100025A54204D056F8253098470135F8E770BD8804000088040000880400009004000010B5431E0A44914204D011F8014B03F8014FF8E788
:4004400010BD03460244934202D003F8011BFAE7704700000000000060510040100000000140001000140140000800400140000A004C01400002005001402000F8B500BFE4
:40048000F8BC08BC9E4670474D000000D9000000F8B500BFF8BC08BC9E46704729000000B004000008C1FF1F08000000200000000000000000000000000000000000000098
:4004C00000000000000000000000000000000000000000000000000000000000000000000000000000000000000000000000000000000000000000000000000000000000FC
:4005000000000000000000000000000000000000000000000000000000000000000000000000000000000000000000000000000000000000000000000000000000000000BB
:40054000000000000000000000000000000000000000000000000000000000000000000000000000000000000000000000000000000000000000000000000000000000007B
:40058000000000000000000000000000000000000000000000000000000000000000000000000000000000000000000000000000000000000000000000000000000000003B
:020000040001F9
:0200000480007A
:4000000009520040410001402F01014044020140480301404804014042050140450601403E0701403E0801402B0901403E0A0140300B01403E0C0140400D01403E0E014051
:400040002B0F0140471401404A15014049160140441701403E1801403D1901403E1A01403A1B01400242014005430140014401401545014001460140094801400C49014051
:40008000094C0140104D0140055001400CE014FF181419A029102C4F6101780579040401050F07F0080209FF0A040C010D550FAA10011401153317CC180119FF1C011D96D8
:4000C0001F69200422022406280129FF2C012FFF340135FF360638203E103F10580459045F0182FF8433850F86CC87F08BFF8D558FAA93FF940F95FF96F09AFF9CFF9D69E4
:400100009F96A055A2AAA5FFA6FFA896A933AA69ABCCB0FFB1FFBE01BF01D804D904DF01004401200504064009210B210D040E080F02104012041384140816901A011B109E
:400140001C402120278028052A102B012C482E012F203008310432C0332034053680390C3A803B103D043E803F10800C8280C037C2EFC47FCA6CCCDECE7EE204E60402FF07
:40018000032D050906FF0712080F09040AF00B200D040F20106911041296132016FF172619041B201D041F31205522AA26FF27242B092C332ECC3120330334FF3504371856
:4001C0003B883E103F11580459045F01850286FF883389028ACC8C558D028EAA90969269930195019B019EFFA102A502A6FFA8FFAC0FAEF0B0FFB302B501B908BE01BF1455
:40020000D804D904DF01009001080320050A070808410A800C010F101002121013101690174019011C04211022042304244225202688271129012B102D202E04312832023E
:4002400036893720380439803B203D203E433F048402850487188C108D448F4092819310950897049A809D249E14A040A330A701A901AB01AC40AE80AF10B240B310B60499
:40028000B720C077C239C4B7CA63CCF7CEFEE208E602EA03EE03010403020501080F0AF00D01109612691706183319011ACC1C551EAA1F0622FF26FF29012AFF2CFF2D0146
:4002C00030FF31043302370139803E013F40580459045F018215831185198645872689408A158B208E158F08920993089580964597129A259B119E029F04A311A580A615FE
:40030000A711A815AA2AAB19B00CB10CB240B303B430B530B603B7C0BAA2BB2ABE04BF40D804D904DF010208040205220602072008400A800B080E6610A812011420152008
:4003400018801E561F2020202181255026162768280829802D222F2030043160342136043750388039083B013C403D203E013F044A024B80840185088E0490429120920955
:40038000930496449A029B119D209E049F20A518A603AC40AD02AE10AF01C0F2C2FBC46FCAECCCFECEFBEA02EE0802040308040809010A010D010E01110212201304150169
:4003C0001622181019021B0C1D011E20210122102501260828012A02310C320334203502361C370138A03A083E503F51580459045F01801E81FF82018533860687CC8A1454
:400400008C1E8D0F8FF09001940A97FF98019BFF9DFF9E1FA018A155A3AAA401A569A796A801AE01B01EB401B5FFBE11BF10D804D904DF01000A01400308044405200740EB
:40044000088009140B420E6A0F0810151280131014801520170819201B021C041D481E201F10212026402786284029022B102F5030A837953A413B083D803E118180904011
:400480009120925993809508968097099B599C4C9DE09E01A1C0A201A4A8A528A608AC10AD01C0FFC2FFC47FCAC3CCFECEBBE204013303CC080F09FF0AF00C550DFF0EAA43
:4004C000103312CC150F17F019551BAA1DFF1EFF21FF22FF24FF289629692A692B962EFF33FF36FF3E403F04580459045F01815583AA8455850F86AA87F0889689FF8A691E
:4005000090FF959697699BFF9C339DFF9ECCA0FFA133A3CCA40FA6F0AAFFACFFADFFB2FFB7FFBE04BF40D804D904DF010110022003080602070808400B400C800D01108094
:4005400011041398151016A017801A201F802140242028402A802C802F0830A033083630378839043A223EA03F528302942895809620A120A608C0C6C299C4FFCAA9CC7EC2
:40058000CEB700FF0455050206AA080F09020AF00D02110114FF150218FF19021D011EFF20962101226929012C332D012ECC330134FF350239283E103F14580459045F0106
:4005C00081968369845586AA87FF880F89FF8AF08C698DFF8E9694FF950F97F09CFF9D339FCCA0FFA1FFA555A7AAA8FFAC33AECCB6FFB7FFBE40BF40D804D904DF010010FC
:400600000101021004100612070A0A050B100E210F10100113021401152119101D402128268029522C102E01329A34803708382839803D403E063F108D089010916192057F
:40064000989199029A12A212AD18AE14C0EEC2A7C4D9CACDCC5FCEFEE610EA02EE0801FF07FF0833090F0ACC0BF00C960DFF0E69155516FF17AA1AFF1D331EFF1FCC20FF96
:4006800021692396245526AA27FF280F2AF031FF32FF3E043F01580459045F0183FF84FF89FF8EFF8FFF903392CC9496950F966997F098FF99559BAA9CFFA169A396A4557D
:4006C000A5FFA6AAA80FA933AAF0ABCCB0FFB1FFBE01BF01D804D904DF0101480520060209010A250B020E25121814101511170419021F082202248029282A022D082E0281
:40070000301032083480370439603B023C103D503E053F10860887188CC08D21914192219520960498019A129B049D08A501A608A908AA01AC20AE10AF88B010B180B20176
:40074000B340B540B780C0C5C2EFC476CAC7CC56CEFDE218E610EA42EE8006FF08FF0BFF0FFF1033113312CC13CC1469169618FF19551BAA1DFF216922FF239625FF280F2C
:40078000290F2AF02BF02C552EAA32FF33FF3E043F04580459045F018169839686FF87FF8C968E69913393CC95FF98FF9DFF9EFFA2FFA3FFA455A555A6AAA7AAA80FA90F7E
:4007C000AAF0ABF0AC33AECCB1FFB2FFBE04BF01D804D904DF010020010805080602080109010A240E051004110112081380140515011610170418201F082108260128043F
:4008000029082A022C242F80302133803401358839203B803E067D017F8080108212C0A6C2CEC4FBCAE7CCDDCECCE6040055010102AA0508080F09080AF00CFF0D081096E2
:400840001108126915021704183319011ACC1D021F0420FF2108250826FF29082CFF2D0832FF33083506370139083E043F54580459045F01812082308344861088018A0227
:400880008B108F109204930999409A029B269E01A204A601A706A964AA08AB08AF10B010B110B220B303B403B560B60CB70CBA2ABB80BF05D804D904DF0100800102020869
:4008C000052006A00A800B080C100E8210A012011501172819081C021D101E101F22210422802304240A25152623270A29882B442D202F2230103190320534013620370267
:4009000038823A083B203D823EB080408180820883048401860187108B049101928B9308940A950899229A019B209C11A0E0A1C0A248A340A514A683AA01AC48C07BC2DA66
:40094000C47DCA7FCCAFCEBFE205E607EA06010F020105050601078008010A020E10110F120213F014141540160117031A011D0C1E011F4020082201250F272029802B0AF8
:400980002C0C2D102E112F0F3003320C33FF340436103A023BC03E143F04580459045F01839087458B628CFF8F69906992969345945596AA98339ACC9B45A2FFA6FFA80FC0
:4009C000A945AAF0AB8AACFFAF45B10CB303B530B6FFB7C0BB8ABE40BF10D804D904DF010080040A056008080A800B080C100E420F1010A0120915821A021E491F29200AEA
:400A00002141235925402720280129202F29301032023680370A380839013B513D083F0180808428850286488A408B048E408F50920895089680975B99609B029C119D0244
:400A40009E41A180A240A4ADA514A68CA718AC08AF02B540B704C0F1C2FEC49FCA7CCCD5CECFE22EE608EE08015502FF03AA08690A960DFF12FF1455150F16AA17F01BFF98
:400A80001D331EFF1FCC203322CC23FF240F25FF26F029692B962EFF30FF31FF3E013F01580459045F01815583AA886989968A968B698D0F8EFF8FF0900F92F094559533F6
:400AC00096AA97CC983399FF9ACC9FFFA1FFA2FFA4FFA8FFADFFB3FFB4FFBE10BF04D804D904DF01011002010308041006800A180B800C800E300F8010A013201440150219
:400B0000178818081F02220826022A802B402CA02F0830A032043440372838103A023B803E023F808221834085408692876888408A048B018C108D208F08940895029C4051
:400B40009EA29F88A120A4A0A618A70BAF80C053C2BEC4BECAE9CC7ECE9DE29EE648005502AA06FF08960A690BFF0CFF0D330FCC115513AA140F150F16F017F0183319FF1E
:400B80001ACC1FFF22FF26FF29962B692FFF31FF36FF3E403F01580459045F0184FF880F8AF08BFF8C558D338EAA8FCC903392CC950F97F099699AFF9B969D559EFF9FAAEC
:400BC000A0FFA1FFA7FFA869AA96ADFFB0FFB1FFBE01BF01D804D904DF010004011002800302040405400620070908040A080CA00D010F4010A01510168017101A021E404A
:400C0000204026012A802B082CA02E802F0230A4330134043540368037183A203B403E203F408040824386019112920899409AA09B08A0A0A202A308A880AC20AF80C0EFD9
:400C4000C2D6C45CCADCCC7FCE3CE420EA065240D4209340AE40AF40EA10EE40832000800320051007400B840C040F0287408F409C049D10A440A720AC40B004B510C00F5B
:400C8000C20FE208EA02EE01AF0557205F408A0193409B08AF08D440D620EA1056405A025F088640872092029B08A720D440D6C0E210E61009400E44824085408688890801
:400CC0008C80C207E209028804200508088062028A0294209C809D08A688A810AE04C00FC202D802E404000108010A0110011A0100FFFF00FF000000000F0F000F00000034
:400D0000000F0F000F000000E00000E00000000000000000FF0080FF800000000000000000FFFF00FF000000003F3F003F0000000D00421D10001000000000000000000082
:400D40000000000000000000000000000000000000000000000000000000000000000000000000000000000000000000000000000000000000000000000000000000000073
:400D80000000000000000000000000000000000000000000000000000000000000000000000000000000000000000000000000000000000000000000000000000000000033
:400DC00000000000000000000000000000000000000000000000000000000000000000000000000000000000000000000000000000000000000000000000000000000000F3
:400E000000000000000000000000000000000000000000000000000000000000000000000000000000000000000000000000000000000000000000000000000000000000B2
:0200000490006A
:0400000000004005B7
:0200000490105A
:04000000BC90ACAF55
:0200000490303A
:02000000EB9D76
:0200000490402A
:4000000000000000000000000000000000000000000000000000000000000000000000000000000000000000000000000000000000000000000000000000000000000000C0
:400040000000000000000000000000000000000000000000000000000000000000000000000000000000000000000000000000000000000000000000000000000000000080
:0200000490501A
:0C00000000012E13306900012E191C06AF
:00000001FF