:400000000040002011000000890000008900000008B5044B1A6803F53F5302331A6000F035F800BFFA46004010B5054C237833B9044B13B10448AFF300800123237010BD78
:4000400010C1FF1F0000000054040000084B10B51BB108480849AFF300800848036803B910BD074B002BFBD0BDE81040184700BF000000005404000014C1FF1F08C1FF1FC1
:400080000000000062B6FEE7FEE700BF08B5104E104D16E029686B68AC68002204E051F8040B43F8040B0432A242F8D1E868002203E0002143F8041B04328242F9D1103555
:4000C000013E002EE6D100F08BF9FFF7DBFFFEE701000000A004000008B5124A124B1A60124A136843F40073136000230AE0032B03D80F4A52F8231000E00E490E4A42F875
:40010000231001332F2BF2D90C4B1A780C4B1A70094A0C4B1A6000F0ADF800220A4B1A6008BD00BF0004FA050CED00E014ED00E0000000008900000000C0FF1FBC760040A5
:4001400004C1FF1F08ED00E000C1FF1FFEE700BFF0B40022174611E050F82760F3B226F0FF0608E001EB420511F812406D78A5550132013BDBB2002BF4D10137212FEBD914
:40018000F0BC7047064B1B78DBB203F00701054A11701B09013213704422034B1A707047CF0100496E5800407658004008B50A46002100F046F908BD38B50024234B1C8067
:4001C000582202331A70022203F27E231A7008224FF040231A70032103F5007319701C4B1B78DBB21B490B701B4B1A8041F25122023B1A8019250CE0184B1B7803F001031A
:4002000043EA440404F003044FF4F07000F0D8F8013D0DB1032CEFD115B90320FFF796FF0F4B4FF480721A8007221A7000220D490A704820023108701A700222033B1A702D
:40024000094A137843F00103137038BD8040004008010049A146004022420040254200400440004006400040A243004008B500F0DDF808BD70B572B6374A137843F0040324
:40028000137000240CE0354963001A1952000A4423445B00C8589188FFF788FF0134E4B2052CF0D94FF090402D49FFF751FF2D4A137843F0020313701032137843F002032D
:4002C0001370294C237843F040032370A2F58632513A137843F010031370244824490822FFF7C4FF234824490822FFF7BFFF234823490822FFF7BAFF224823490A22FFF71A
:40030000B5FF224822490A22FFF7B0FF214822490822FFF7ABFF214821490822FFF7A6FF204821490A22FFF7A1FF204A137843F0080313701E4E01253570FFF73DFF8123D6
:4003400033701C4B1D70FFF71DFF1B4821460E22FFF78CFF70BD00BFE8460040580400008800004803500140A043004002510040C40C0048C2510040CC0C0048F25100407B
:40038000D40C004810510040DC0C004820510040E80C004832510040F40C004842510040FC0C004850510040040D0048224300400048004004000840B04300400000000043
:4003C0000230800803D000BF01380046FCD17047EFF3108072B6704780F31088704700BF0E4B70B51E460E4C0025E41AA410A54204D056F8253098470135F8E700F03EF851
:40040000084B094C1E46E41AA4100025A54204D056F8253098470135F8E770BD8804000088040000880400009004000010B5431E0A44914204D011F8014B03F8014FF8E788
:4004400010BD03460244934202D003F8011BFAE7704700000000000060510040100000000140001000140140000800400140000A004C01400002005001402000F8B500BFE4
:40048000F8BC08BC9E4670474D000000D9000000F8B500BFF8BC08BC9E46704729000000B004000008C1FF1F08000000200000000000000000000000000000000000000098
:4004C00000000000000000000000000000000000000000000000000000000000000000000000000000000000000000000000000000000000000000000000000000000000FC
:4005000000000000000000000000000000000000000000000000000000000000000000000000000000000000000000000000000000000000000000000000000000000000BB
:40054000000000000000000000000000000000000000000000000000000000000000000000000000000000000000000000000000000000000000000000000000000000007B
:40058000000000000000000000000000000000000000000000000000000000000000000000000000000000000000000000000000000000000000000000000000000000003B
:020000040001F9
:0200000480007A
:40000000095200403E000140290101403D0201403903014043040140310501404B060140450701403E08014042090140430A01403F0B01403E0C01403B0D01403B0E014056
:40004000270F01403F1401403F150140491601403F1701403B180140341901403E1A01403B1B0140034301400D4501400E46014014470140074801400A490140104C01404B
:40008000104D0140055001400CE014FF1810190429102C4F6001780A790101960369043306CC0CFF0DFF11FF12FF155517AA180F19FF1AF01CFF2069229623FF253326FF04
:4000C00027CC2855290F2AAA2BF031FF32FF3E043F01580459045F01816983968433850F86CC87F08EFF8FFF91FF9455955596AA97AA980F99FF9AF09C969E699FFFA2FF16
:40010000A4FFA533A7CCAEFFB0FFB3FFBE01BF04D804D904DF01010802020508070108400A440D080F0A10101101120814101680174018201E8023802710284029082B04ED
:400140002D0830103108320A33013450360A374039013A803D013E803F088C10C0A5C2EBC4BECA47CCF7CED90169020203960401050F07F00FFF100113FF155517AA1BFFB7
:400180001C011FFF22022401253327CC2C013001320235FF38023A083B033E013F10580459045F0181968369843386CC8CFF8FFF92FF93FF955597AA980F9AF09BFF9DFF6F
:4001C0009EFFA096A269A533A6FFA7CCA855A90FAAAAABF0B6FFB7FFBE40BF40D804D904DF0101080202075008400A440E811010110112081480154017081A011CA02302B3
:400200002501274829082B042D0830103140320A34503540360A39013A803D013EC43F0A812085408F089140950196449B109C509D089E809F02A240A60AA705A940AB02E4
:40024000B780C035C29BC4BECA46CCFFCED9E609EC01EE0400FF0455050F06AA07F008FF09550BAA0CFF0DFF15FF16FF180F1AF01D331FCC203322CC249625962669276975
:4002800029FF2FFF33FF34FF3E103F04580459045F0180108220852087558A038D108E0A8F6590059380940F9749980F9B409C0CA20FA342A410A575A640A78AAA40AB40CB
:4002C000AF40B010B103B20FB330B50CB660B7C0BBA2BE45D804D904DF010180025003080552074008080B040E6912A0171918081E411F0423102504277D280829A42D42AE
:400300002E202F1032C033083610370939A03A583B043D8888408E408F0499209C809D089E80A050A101A308A60AA705AC10C0DFC2F6C47CCAFECCEACE5EEE0202080310AA
:400340000408061007050A080B100E040F051208140715201630170219201F10230924012505264C270A2A082B052C022E482F053004310C32183320340335033660371019
:400380003A083B223E503F44580459045F0184018501862089018A808D048E809009924094019501960898019A7E9C219D019E04A102A461A504A602A80FA901AA10B0806A
:4003C000B101B67FB706B902BE01BF41D804D904DF010088012004840680074409080A800B090EA010141540162217A819801A801D541E6022012301254226442788290164
:400400002B142E822F183008318034803690370838083B503C203D8A430C851087048B018D408E409008931895E097209B659C809D589E20A010A105A540A616A701A9805A
:40044000AA08AE80B504B628C0F7C23FC4E6CAF7CC7ACEFEE202E640EA06EE01003301FF02CC04FF07FF08FF09550BAA0C550DFF0EAA100F12F0153317CC190F1AFF1BF006
:400480001DFF20962196226923692CFF32FF35FF3E043F10580459045F01803382CC84FF859687698AFF8C558EAA915593AA950F97F09AFF9BFF9D339FCCA096A269A6FF8F
:4004C000A7FFA9FFAC0FAEF0AFFFB0FFB7FFBE01BF40D804D904DF01020703500605075008100C200F401020121013421402170219021D082280251028022A142E023202E1
:4005000033583448351038083D013EA03F04801083408602874889408A028E049008910193049702984099109A209B129C089D429E809F40A308A510A680AA08AB18AD08CD
:40054000AF84B414B621B702C0FFC252C49DCA8ECC7FCEF2E282E611EA16EE41000201FF0401080209550BAA0C011004119612081369140115FF1801190F1BF01C02200298
:4005800021FF2402280129332BCC2C042E082FFF3002340135FF360C38223E513F10580459045F0180FF83FF85FF880F89558AF08BAA8C698DFF8E9690FF919693699533EF
:4005C00097CC990F9BF09CFFA0FFA1FFA833AACCAC55AEAAB3FFB4FFBE10BF04D804D904DF010014010203020550078109100A400B220C400D0112821328140816811A458E
:400600001F102004272028482A802C4031183301340835103701382039033D013EA03F0486018A028D108F40901091029428960498409B089C089D509E819F41A302A5080C
:40064000A608A708AA08AD03AF10C0DFC29FC4DFCA8DCCE7CEF5E008E250E420EA02EE03080F09330AF00BCC0C690E960FFF116912FF139614FF190F1BF01CFF1D551FAA76
:4006800021FF22FF25FF28332ACC2BFF2C552EAA30FF37FF3E013F40580459045F01856986FF8796890F8AFF8BF092FF93FF95FF98559AAA9BFF9D339EFF9FCCA033A2CCFE
:4006C000A469A555A696A7AAA80FA9FFAAF0B2FFB5FFBE04BF10D804D904DF0102280550089009020C480D0910801314140815101681178018101F0223082702281029200E
:400700002A082C482F1030803102322833403511378138083A203B143D103E8042204308822084408C808D2094209502960497209C489D119E809F83A508A904AB20B60419
:40074000C0C6C2BBC4DECAE6CCBFCE36E210E609EC1001FF083309550ACC0BAA0C960E6912FF14FF15FF190F1BF01EFF1FFF216922FF2396280F29332AF02BCC2C552EAA74
:400780002FFF33FF36FF3E403F04580459045F01840188018C018DFF916993969401953397CC9801990F9BF09C019D559FAAA3FFA401A7FFA801A9FFB401B5FFB820BE10CF
:4007C000BF10D804D904DF0101200301050406040702084009080A400E050F10110113A017181A011F2023102708280829212A802C402F183040311833083408351137A0A7
:40080000382039033EC08F10C0E3C2EDC46BCAEDCCFECE15E44004FF08FF090F0BF00C690D690E960F9610FF113313CC17FF1C0F1D551EF01FAA205522AA23FF24FF25FFC7
:40084000283329FF2ACC32FF37FF3E043F40580459045F0182028302860E870188028B038E0C8F0190029301940197019C019F01A202A303A406A608A802AF01B004B20164
:40088000B402B502B608B701B920BE14BF50D804D904DF010088030804800504074409010A010D461084110817291B041C441D081F9021802540261029202A012B102D8057
:4008C0002F403080330A364837023AA03C203E043F428105820183908444852086A188048B0A8CC090809188920493C09404972099849B6FA010A102A248A301A5C8A61043
:40090000A704C0F7C2B9C47ECA97CCDBCEFCE24EE6030004022A0310062908040A300C040E400F081302140415021629182919081A521E2D222D2404262927012B052D0198
:400940002E2D3003310E3218340435013660371039023A8A3B803E103F11580459045F01800282418308845786A887548A208E188F2794019656979599549A809BA89E1441
:40098000A240AA40AE40AF56B00CB10CB230B3C0B4C0B503B603B730BA2ABB8ABF10D804D904DF010220038A0414054109400A040B200D200E010F2012081342158A19A08C
:4009C0001A051B9B1CB01D411E801F6020082145220823422480252026A029802C042F2A3228341036143701380439823C803D029484976099049B6D9C149D21A103A2045F
:400A0000A444A588A680A714AA02AE01B008B588C0FFC2E7C4BBCA78CCE6CE9BEA01EC02EE40000103FF040105690796080109330BCC0D0F0FF0100114011BFF2001240155
:400A400025FF280129FF2D552FAA300135FF38023E013F10580459045F01803382CC859686FF876989338AFF8BCC8C558EAA900F915592F093AA950F97F0989699FF9A69E2
:400A8000A2FFA4FFA7FFA9FFADFFB3FFB4FFBE10BF04D804D904DF01012002020350042405020B440D020F2010101240148017281B101F0123202708281229202A5C2B01FE
:400AC0002D202E082F023202331A371038183B043C103F4690189340970298829A049B509E10A202A308AA80AC80B012B108B408C07FC23AC47CCA7ECC27CEF6EA41EE2026
:400B0000056906FF079609330AFF0BCC0CFF115513AA1433150F16CC17F019FF1AFF1C551EAA2496266927FF280F2AF02BFF2DFF30FF35FF3E013F10580459045F0181FFFD
:400B4000840F856986F0879689338AFF8BCC905592AA9433950F96CC97F098699A969BFFA4FFA7FFA8FFA9FFAD55AEFFAFAAB0FFB3FFBE01BF04D804D904DF010120031233
:400B8000052408100A020B100C020F14120813041412171019021D0220042420281229202A042B232C022D202F2030023104320B331C371438183B043C303F168002831010
:400BC000841086088704881089208C0290189424980299209A049B109D02A202A308A502B520C067C277C4E6CA7ECC67CEE6E220E6C085028C10E6100080034804180880AA
:400C00000A800C200F80808084208C10C00FC20FE20885208D4090189280974098809B409C20A060A340AB08AC20AF40E202800484408A048C2090189560974098809C20F4
:400C40009F10A060A120AA40AB40AD10B750E201E608EA08EE025010530290209902A302B702D4A05A205D027C4080408E109902D480D680DE20E62008200D100F40901076
:400C80009560960897409C209D089F14A120AB04B080B508C207EA0601400310050807040A086120954096089D089F14A120B410C00FC202D802EA08000108010A011001CC
:400CC0001A01000000FFFF00FF000000000F0F000F000000000F0F000F000000E00000E00000000000000000FF0080FF800000000000000000FFFF00FF000000003F3F0049
:400D00003F0000000D00421D1000100000000000000000000000000000000000000000000000000000000000000000000000000000000000000000000000000000000000E8
:400D40000000000000000000000000000000000000000000000000000000000000000000000000000000000000000000000000000000000000000000000000000000000073
:400D80000000000000000000000000000000000000000000000000000000000000000000000000000000000000000000000000000000000000000000000000000000000033
:400DC00000000000000000000000000000000000000000000000000000000000000000000000000000000000000000000000000000000000000000000000000000000000F3
:400E000000000000000000000000000000000000000000000000000000000000000000000000000000000000000000000000000000000000000000000000000000000000B2
:0200000490006A
:0400000000004005B7
:0200000490105A
:04000000BC90ACAF55
:0200000490303A
:02000000EF3DD2
:0200000490402A
:4000000000000000000000000000000000000000000000000000000000000000000000000000000000000000000000000000000000000000000000000000000000000000C0
:400040000000000000000000000000000000000000000000000000000000000000000000000000000000000000000000000000000000000000000000000000000000000080
:0200000490501A
:0C00000000012E13306900012E191FA60C
:00000001FF